:020000040800F2
:10000000382D0020990100081F150008491200082A
:10001000B914000831070008851800080000000026
:1000200000000000000000000000000001010008C6
:10003000A307000800000000450100080917000898
:10004000B3010008B3010008B3010008B3010008C0
:10005000B3010008B3010008B3010008B3010008B0
:10006000B3010008B3010008B3010008B3010008A0
:10007000B3010008B3010008B3010008B301000890
:10008000B3010008B3010008B3010008B301000880
:10009000B3010008B3010008B3010008B301000870
:1000A000B3010008B3010008B3010008B301000860
:1000B000B3010008B3010008CD170008B301000820
:1000C000B3010008B3010008B3010008B301000840
:1000D000B3010008B3010008B3010008B301000830
:1000E000B3010008B3010008B3010008DFF80CD029
:1000F00000F056FA004800473D1F0008382D002048
:10010000224B19680868B0E8F00F80F30988BFF344
:100110006F8F4FF0000080F311884EF00D0E704786
:100120000000000006480068006880F3088862B696
:1001300061B6BFF34F8FBFF36F8F00DF00BF00BF0B
:1001400008ED00E0EFF30980BFF36F8F0F4B1A68E3
:1001500020E9F00F106008B54FF0500080F31188CF
:10016000BFF34F8FBFF36F8F02F06AFC4FF00000B8
:1001700080F31188BDE8084019680868B0E8F00FFE
:1001800080F30988BFF36F8F704700BF44000020E1
:10019000EFF3058070470000064880470648004797
:1001A000FEE7FEE7FEE7FEE7FEE7FEE7FEE7FEE727
:1001B000FEE7FEE785170008ED000008202A04DBB3
:1001C000203A21FA02F00021704721FA02F3D040D0
:1001D000C2F12002914008431946704740EA0103EA
:1001E0009B0703D009E008C9121F08C0042AFAD2ED
:1001F00003E011F8013B00F8013B521EF9D27047B1
:10020000D2B201E000F8012B491EFBD27047002258
:10021000F6E710B513460A4604461946FFF7F0FF05
:10022000204610BD2DE9FE4F804681EA0300C00F35
:100230000C46009021F0004123F00045B8EB02008D
:10024000A94105D24046214690461C460B4602462F
:1002500023F00040104347D0270DC7F30A00C3F333
:100260000A510290401A019040286BDAC3F3130040
:1002700040F4801B0098924620B10023D2EB030A81
:1002800063EB0B0B01985946C0F14002504600F059
:1002900008F906460D4650465946019A00F010F9F5
:1002A00010EB08006141002487EA115284EAE773E9
:1002B0001A4340D0009A62B3019A012A4FEA0752CA
:1002C00015DC001B61EB02014FF0004202EA07520D
:1002D000CDE90042001C41F5801132462B4600F06A
:1002E00010F903B0BDE8F08F40462146F9E7001B46
:1002F00061EB0201001C41F5801300185B412018DE
:10030000A2F5001747EB030140EAD570B6196D411D
:1003100011E06D084FEA360645EAC0754FEA07520C
:10032000001B61EB0201001C41F5801149084FEAF6
:1003300030000019514132462B4603B0BDE8F04F62
:1003400000F0D0B80098012240000023D0EB020258
:1003500063EBE073009821464FEAE074B8EB0000CD
:1003600061EB0401E9E783F000435BE781F00041C2
:1003700058E72DE9FE4F81EA030404F0004421F020
:10038000004100944FF0000B23F0004350EA0104B9
:100390005ED052EA03045BD0C3F30A54C1F30A559A
:1003A0002C44A4F2F3340194A0FB0254C1F31301D2
:1003B00041F48011C3F3130343F4801301FB02449F
:1003C00000FB034E840A970A44EA815447EA8357A4
:1003D000A4FB076802958D0A05FB07854FEA932C5D
:1003E00004FB0C542705029D4FEA065847EA1637CE
:1003F000B5EB08056EEB070C870E920E47EA8117E6
:1004000042EA8312A7FB0201B6EB0B0164EB000486
:100410002B0D43EA0C335E1844EB1C50DA46514670
:10042000E7FB0201C5F313044FEA0B3343EA14530D
:100430004FEA0432019C43EA0603A4F10C0402943F
:10044000009CCDE900B400F05CF803B0BDE8F08F8B
:1004500000200146F9E70EB540F233410291002138
:10046000CDE900110A460B4600F04BF803B000BD81
:10047000C1F30A5210B5C1F3130140F2FF3341F446
:1004800080119A4201DA002010BD40F233439A42B3
:10049000A2F2334203DC5242FFF790FE10BD9040BF
:1004A00010BD202A04DB203A00FA02F10020704738
:1004B0009140C2F1200320FA03F3194390407047A2
:1004C000202A06DBCB17203A41FA02F043EAE07318
:1004D00006E041FA02F3D040C2F120029140084305
:1004E0001946704710B5141E73F1000408DA401C59
:1004F00041F1000192185B411A4301D120F0010043
:1005000010BD2DE9F04D92469B4611B1B1FA81F232
:1005100002E0B0FA80F220329046FFF7C2FF0446B4
:100520000F4640EA0A0041EA0B0153465A46084387
:1005300013D0114653EA010019D0C8F140025046C9
:10054000FFF73CFE05460E46504659464246FFF729
:10055000A8FF084305D0012004E020463946BDE845
:10056000F08D0020054346EAE0762C4337430A9895
:100570006305E40AA0EB08000022FD0A44EA4754A0
:100580000A3002D500200146E9E70105101969414A
:10059000DDE9084500196941BDE8F04DA2E700001A
:1005A000064C074D06E0E06840F0010394E80700C0
:1005B00098471034AC42F6D3FFF79CFDF0330008A7
:1005C000103400082DE9F04D81EA030404F0004BDB
:1005D00021F0004514464FF0000A23F0004150EA94
:1005E000050220D054EA01021DD0C5F30A57024685
:1005F000C5F31303C1F31300C1F30A5640F4801589
:1006000043F48013A7EB0608101BD64608F2FD380A
:1006100073EB050002D308F1010801E092185B4179
:10062000B8F1000F03DA00200146BDE8F08D00208C
:100630004FF48011064684460EE0171B73EB050746
:1006400005D3121B63EB050306434CEA010C490872
:100650004FEA300092185B4150EA0107EDD152EAAF
:10066000030012D082EA040083EA0501084305D0A2
:10067000101BAB4106D20122002306E000224FF0FE
:10068000004302E06FF0010253101AEB06004CEB3E
:10069000085110EB0A0041EB0B01BDE8F04DFFF7EC
:1006A00021BF70B521F0004303430CD0C1F30A55BC
:1006B0000024D5EB040564EB0403D617AD1AB3414F
:1006C00002DB0020014670BD201841EB025170BDD5
:1006D0000EB5C10F80EAE0700844CA07002140F25D
:1006E00033438DE80E000A460B46FFF70AFF03B0BE
:1006F00000BD70B5C1F30A5201F000450024C1F3FA
:10070000130140F2FF3341F480119A4201DA0020D4
:1007100070BD40F233439A42A2F2334203DC5242AC
:10072000FFF74CFD00E090402C43F1D0404270BDFB
:10073000FEE710B5044600F077FFD02000F051FF2F
:1007400000F000FF204600F04CFF00F0FBFE00F040
:100750006BFFD12000F045FF022000F01DFF044692
:10076000052000F01FF800F002FF00F072FF2046A5
:1007700010BD70B50D46044600F056FFD02000F0C5
:1007800030FF00F081FF204600F02BFF00F07CFFDF
:10079000284600F026FF00F077FFBDE8704000F02B
:1007A00058BF704770B5044600F008F90546601C54
:1007B00002D004480078044400F000F9401BA04235
:1007C000FAD370BD340000202DE9F84FDFF8B8915E
:1007D000002409F1040A0AF1040B23460F270BF148
:1007E000040EC9E00125A5402A40AA427DD1674EEA
:1007F000D1F804C0ACEB0608B44532D014DCBCF12F
:10080000030F3AD009DCBCF1000F2AD0BCF1010F74
:100810001CD0BCF1020F31D11DE0BCF1110F17D07B
:10082000BCF1120F2AD119E0B8F5881F19D006DCE7
:10083000B8F5803F15D0B8F5801F1FD111E0B8F58D
:10084000001F0ED0B8F5041F18D10AE0CB6815E0E0
:10085000CB681B1D12E0CB6808330FE0CB680C336C
:100860000CE08B682BB1012B4FF0080303D04561DE
:1008700004E0042302E0056100E00023FF2A01D820
:10088000064601E000F104064FEA840501D9A5F10E
:100890002005D6F8008007FA05FC28EA0C0803FAC0
:1008A00005F548EA0508C6F800804D68ED0062D5F8
:1008B000374DAE6946F00106AE61AD6924F003061E
:1008C00005F001050095334D06EB050CDCF80850EA
:1008D000A607360F07FA06F825EA0805DFF8B880FC
:1008E000404503D14FF0000817E044E0DFF8AC804A
:1008F000404502D14FF001080FE0DFF8A4804045E9
:1009000002D14FF0020808E0DFF89880404502D19C
:100910004FF0030801E04FF0040808FA06F848EA2F
:100920000508CCF808804D68D9F80060ED034D4605
:1009300001D5164300E096432E604D68DAF800605A
:10094000AD03554601D5164300E096432E604D6831
:10095000DBF80060ED025D4601D5164300E09643EA
:100960002E604D68DEF80060AD02754601D5164375
:1009700000E096432E60641C0D682A46E5407FF433
:1009800031AFBDE8F88F00000004014000001110F5
:10099000001002400000014000080140000C01402E
:1009A00000100140001401408068084000D0012080
:1009B00070470AB1016170470904FBE7014880688C
:1009C000704700003400002002488168027811441A
:1009D0008160704734000020074810B5016841F07D
:1009E00010010160032000F095F8002000F006F8E7
:1009F00000F03EF8002010BD0020024000B5014686
:100A000087B000221E2000F065F81E2000F054F888
:100A10001348C16941F00401C161C06905A900F032
:100A200004000690684600F01DF900F03BF90D49FE
:100A30004000B0FBF1F10D480B4A491E02604160D5
:100A400040F2E7320021C0E90321816000F002FB9F
:100A500010B1012007B000BD044800F017FBF9E712
:100A60000010024040420F0000080040F800002043
:100A70000F4808B5816941F001018161816901F088
:100A800001010091C16941F08051C161C06900223A
:100A900000F0805000900F21901E00F01BF80548D8
:100AA000416821F0E06141F00071416008BD000043
:100AB0000010024000000140002809DB00F01F0286
:100AC000012191404009800000F1E020C0F80011B0
:100AD00070470000F0B40E4B1B680C46C3F30223B2
:100AE000C3F10705042D00D90425191D072901D2DA
:100AF000002300E0DB1E012606FA05F1491E214015
:100B000099409E40761E16403143F0BC00F0CFBEA7
:100B10000CED00E0064900F0070208684FF6FF03FD
:100B2000184040EA0220034A104308607047000062
:100B30000CED00E00000FA052DE9F0470F46050036
:100B400061D0434E306800F00700B84209D23068E7
:100B500020F0070038433060306800F00700B842EA
:100B600051D128683B4C810712D5400703D56068F6
:100B700040F4E06060602878000703D5606840F4C6
:100B8000605060606068A96820F0F0000843606011
:100B90002878C00728D06868012810D0216802286A
:100BA00010D0890700292EDA616821F00301014382
:100BB0006160FFF703FF804641F288390DE021684C
:100BC0008903EFE78901EDE7FFF7F8FEA0EB0801E5
:100BD000494502D90320BDE8F0876068696800F0E4
:100BE0000C00B0EB810FEFD1306800F00700B84285
:100BF0000BD9306820F0070038433060306800F0CF
:100C00000700B84201D00120E5E72878400705D564
:100C10006068E96820F4E0600843606028780007B5
:100C200006D56068296920F4605040EAC100606020
:100C300000F048F86168084AC1F30311515CC840EC
:100C40000649086006480068FFF7D8FE0020C2E7A2
:100C500000200240001002407C32000840000020CA
:100C6000380000200F2202600C4A536803F003038F
:100C70004360536803F0F0038360536803F4E06358
:100C8000C36052684FF4E06303EAD2020261044891
:100C9000006800F007000860704700000010024084
:100CA000002002400448054900684968044AC1F32D
:100CB0000221515CC84070474000002000100240F3
:100CC0008C32000812A185B00FC98DE80F0014A066
:100CD000144A006804905168134801F00C03042B77
:100CE00010D0082B0ED1C1F38343C9031DF80300B4
:100CF0000AD5516804AAC1F34041515C0A4A5043E5
:100D0000B0FBF1F005B0704708494843FAE700002E
:100D100002030405060708090A0B0C0D0E0F10103C
:100D2000010200000010024000127A0000093D009C
:100D30002DE9F84F040070D02078C04DC00749D08D
:100D40006868C0F38100012807D06868C0F381009B
:100D5000022809D16868C00306D52868800339D500
:100D600060680028E7D035E06068B0F5803F0BD0C0
:100D700010B1B0F5A02F11D0286820F48030286081
:100D8000286820F4802002E0286840F48030286041
:100D9000606890B1FFF712FE06460AE0286840F44A
:100DA00080202860F0E700BFFFF708FE801B642862
:100DB00073D828688003F7D50CE0FFF7FFFD0646DF
:100DC00005E000BFFFF7FAFD801B6428F0D8286813
:100DD0008003F7D420789A4E80074FF001094FF036
:100DE000000839D5686810F00C0F07D06868C0F3A8
:100DF0008100022809D16868C00306D428688007EA
:100E000014D52069012808D110E02069B0B1C6F8D6
:100E10000090FFF7D3FD074605E00AE1FFF7CEFD9E
:100E2000C01B0228C4D828688007F7D528686169E4
:100E300020F0F80040EAC10028600DE0C6F800800C
:100E4000FFF7BCFD074604E0FFF7B8FDC01B022812
:100E500023D828688007F7D4207800072CD5794854
:100E6000A169D9B1C0F80090FFF7A8FD074604E0DA
:100E7000FFF7A4FDC01B02280FD8686A8007F7D5CA
:100E800071484FF4FA510068B0FBF1F0009000BFD8
:100E90000098411E0091FAD20EE080E0C0F8008078
:100EA000FFF78CFD074604E0FFF788FDC01B022812
:100EB00075D8686A8007F7D42078400760D5E8695C
:100EC0000027C00008D4E86940F08050E861E86974
:100ED000012700F0805000905C480168C90513D4D8
:100EE0000168834641F480710160FFF767FD824627
:100EF00006E000BFFFF762FDA0EB0A0064284ED8B1
:100F0000DBF80000C005F5D5E06801280AD008B17B
:100F1000052813D0286A20F001002862286A20F0F2
:100F2000040002E0286A40F001002862E06841F213
:100F3000883B98B1FFF742FD82460BE0286A40F0FB
:100F400004002862EEE700BFFFF738FDA0EB0A01BE
:100F500059455AD8286A8007F6D50CE0FFF72EFDD0
:100F6000824605E0FFF72AFDA0EB0A0159454CD85F
:100F7000286A8007F6D41FB1E86920F08050E86144
:100F8000E06988B36968C1F38101022944D002286D
:100F9000C6F8608004D0FFF711FD044638E034E065
:100FA000FFF70CFD074604E0FFF708FDC01B022811
:100FB0002BD828688001F7D4206AB0F5803F05D18E
:100FC0006868A16820F4003008436860D4E908012B
:100FD0000843696821F4741108436860C6F860909A
:100FE000FFF7ECFC044606E025E000BFFFF7E6FC57
:100FF000001B022809D828688001F7D51BE000BF34
:10100000FFF7DCFC001B022802D90320BDE8F88FA3
:1010100028688001F4D40EE00128F7D06868226ABD
:1010200000F48031914204D1616A00F4701088426A
:1010300001D00120EAE70020E8E7000000100240AC
:101040000000424280044242400000200070004004
:101050007047704710B5040003D094F83D0010B1FC
:1010600007E0012010BD002084F83C00204600F07D
:101070000CF8022084F83D00211D206800F0ACFB34
:10108000012084F83D00002010BD70470168CA6847
:1010900042F00102CA600068816801F00701062978
:1010A00003D0016841F001010160002070477047E2
:1010B00070B50446006801694FF00005C94389070F
:1010C00015D4C168C943890711D4E91E0161012003
:1010D0002077206880698007204602D0FFF7E7FF6D
:1010E00004E000F098F8204600F096F82577206894
:1010F0000169C943490717D4C168C943490713D4D3
:101100006FF004010161022020772068806910F4EB
:10111000407F204602D0FFF7CAFF04E000F07BF8D2
:10112000204600F079F8257720680169C94309074E
:1011300016D4C168C943090712D46FF008010161D0
:10114000042020772068C0698007204602D0FFF77E
:10115000AEFF04E000F05FF8204600F05DF8257770
:1011600020680169C943C90617D4C168C943C906C3
:1011700013D46FF010010161082020772068C06946
:1011800010F4407F204602D0FFF791FF04E000F00A
:1011900042F8204600F040F8257720680169C943ED
:1011A000C90708D1C168C943C90704D1891E0161B3
:1011B000204600F033F820680169C943090609D4C4
:1011C000C168C943090605D46FF08001016120465A
:1011D000FFF73EFF20680169C943490609D4C16889
:1011E000C943490605D46FF040010161204600F073
:1011F0001FF820680169C94389060BD4C168C94337
:10120000890607D46FF0200101612046BDE87040D7
:10121000FFF71FBF70BD70477047000000680349AB
:10122000884201D1FFF7D0BB7047000000080040A2
:1012300070470A21B0FBF1F2B0FBF1F301FB1300A0
:1012400000EB0210C0B27047FEE7000030B50F4857
:1012500085B0816941F00801816180694FF4805453
:1012600000F0080004900020CDE900400120029029
:101270000220074D039069462846FFF7A5FA21464C
:101280002846FFF791FB05B030BD0000001002407A
:10129000000C0140064B4FF40051482805D04C2863
:1012A00005D100221846FFF784BB0122FAE77047F8
:1012B000000C014070B50446114886B0816941F0C8
:1012C0000801816180694FF4805500F008000490A6
:1012D0000120CDE90050029002200A4E0390694699
:1012E0003046FFF771FA482C08D04C2C04D100226C
:1012F00029463046FFF75DFB06B070BD0122F7E7D7
:1013000000100240000C014008B5184E184C4FF474
:1013100080754FF47A774FF0FF38206901F02AFB8F
:10132000002229463046FFF744FB384600F080FE95
:10133000012229463046FFF73CFB384600F078FE94
:1013400060780028E9D0401CC0B260700528E4D164
:1013500042466946A06801F00DFD0128DDD10098E4
:101360000128DAD1206901F093FAD6E7000801409C
:101370000000002008B54FF00108214E214F224CFB
:101380004FF48075CDF80080606901F0F3FA002217
:1013900029463046FFF70DFBD4E9080100223B4601
:1013A000FEF7E7FFFFF764F800F042FE012229464E
:1013B0003046FFF7FEFAD4E9080100223B46FEF76B
:1013C000D8FF00223B46FEF7D1FFFFF751F800F0AF
:1013D0002FFE2078401CC0B2207096280AD184F8D5
:1013E000018000231A466946A06801F013FC606979
:1013F00001F04EFA2078FF28C6D100202070C3E704
:101400000008014000003440000000202DE9F043B6
:1014100085B00024254800940194029403948169C6
:1014200041F020018161816901F02001049181690D
:1014300041F008018161816901F00801049181692D
:1014400041F0040181618069DFF8648000F00400EC
:101450004FF460450490002229464046FFF7A9FA60
:10146000DFF850904FF48077002239464846FFF766
:10147000A0FA3801CDE90004694640460294FFF71E
:10148000A3F9009501250226CDE90256694640469A
:101490000195FFF799F900970396CDE90154694644
:1014A0004846FFF791F905B0BDE8F083001002400F
:1014B000000C014000080140FEE72DE9F04198468C
:1014C000DDE9064516460F46FFF7B3FE0146062046
:1014D000FFF74FF93846FFF7ACFE01460520FFF74E
:1014E00048F93046FFF7A5FE01460420FFF741F911
:1014F0004046FFF79EFE01460220FFF73AF92046DC
:10150000FFF797FE01460120FFF733F92846FFF762
:1015100090FEBDE8F04101460020FFF72AB9704770
:10152000064D074CA878A070687820712878E07084
:1015300000F0BEF8012000F07BFDF3E72900002059
:101540000000002010B54C20FFF7A4FE4C20FFF750
:10155000B1FE0520FFF726F94820FFF79BFE052086
:10156000FFF720F9BDE810404C20FFF793BE10B5FF
:101570004C20FFF78FFE4820FFF79CFE0520FFF769
:1015800011F94820FFF786FE0520FFF70BF9BDE8AB
:1015900010404C20FFF77EBE70B506460024FFF7D2
:1015A00055FE00254C20FFF775FE0520FFF7FAF8E1
:1015B0004820FFF76FFE6006040EFFF747FE08B1F4
:1015C000641CE4B26D1CEDB2082DEBD316B1012EF4
:1015D00003D004E0FFF7CBFF01E0FFF7B3FF2046A5
:1015E00070BD70B5044600254C20FFF753FE200661
:1015F00001D5482000E04C20FFF75CFE6006040E99
:101600000520FFF7CFF84820FFF744FE0520FFF73D
:10161000C9F84C20FFF73EFE0520FFF7C3F86D1C0C
:10162000EDB2082DE3D370BD10B54820FFF742FEA0
:101630004820FFF72FFE0520FFF7B4F84C20FFF7F6
:1016400039FE0520FFF7AEF8BDE810404C20FFF74B
:1016500021BE10B54C20FFF71DFE0520FFF7A2F8B4
:101660004C20FFF727FE0520FFF79CF84820FFF7E6
:1016700011FE0520FFF796F84820FFF71BFEBDE896
:1016800010400520FFF78EB810B50024FFF7DEFDEF
:101690004820FFF7FFFDFFF7D9FD0449087000B1AE
:1016A00001244C20FFF7F6FD204610BD2800002045
:1016B0007FB512A102ADD1E9000100246E46CDE94B
:1016C00002012878FFF735F83055641CE4B26D1C30
:1016D000062CF6D30B489DF8001001709DF8011000
:1016E00041709DF8021081709DF80310C1709DF843
:1016F000041081719DF80510C1717FBD00010204C5
:10170000050600002900002010B5502080F3118844
:10171000BFF34F8FBFF36F8F01F03CFC18B104494A
:101720004FF080500860002080F3118810BD000049
:1017300004ED00E030B58FB028216846FEF767FD64
:1017400014210AA8FEF763FD01210804CDE9001069
:101750000024029402250491CDE907504FF4E010D3
:1017600009906846FFF7E4FA0F20CDE90A05680200
:10177000CDE90C4002210AA80E94FFF7DDF90FB065
:1017800030BD00000D48016841F001010160416871
:101790000B4A1140416001680A4A1140016001682A
:1017A00021F480210160416821F4FE0141604FF481
:1017B0001F0181600449C0030860704700100240A7
:1017C0000000FFF8FFFFF6FE08ED00E00148FFF71C
:1017D0006FBC0000F8000020F0B50268164B174CF3
:1017E000174D4FF08047984205D0B84203D0A04231
:1017F00001D0A84203D122F070064A6832439842D1
:1018000005D0B84203D0A04201D0A84203D122F4AF
:101810004074CA6822434C6922F08002224302606D
:101820008A68C2620A688262984201D109690163CA
:1018300001214161F0BD0000002C01400004004086
:10184000000800400C4E0D4F0D4D0024142000F0F8
:10185000EFFB2046FEF7FFFD32463B46FEF789FDD3
:1018600000F0C0FE641CE4B2642CC5E90801EDD3AD
:10187000012000F0DDFBE8E75D36C891BF15A03F11
:1018800000000020FEE7490050EAC12018BF0420F4
:101890004A0D18BF40F0010040F2FF72B2EB515FF9
:1018A00008BF40F00200012808BF05207047090763
:1018B000090E002804DB00F1E02080F800147047D6
:1018C00000F00F0000F1E02080F8141D70470000C8
:1018D0002DE9F74F144694B00021C4E9021115997F
:1018E000079121F00045C9498D4206DC1599C4E9EC
:1018F000000117B00020BDE8F08FC549DFF814A340
:10190000A9423CDD0799C44E0029C44FC44A159929
:10191000534619DDFEF727FD554506D0C14AC24B97
:10192000FEF721FDC4E900010AE04FF0D352BE4B9F
:10193000FEF719FD32463B46FEF715FDC4E90001EE
:1019400017B00120BDE8F08FFEF76CFC554506D0BE
:10195000B44AB54BFEF766FCC4E900010AE04FF05B
:10196000D352B14BFEF75EFC32463B46FEF75AFCC3
:10197000C4E9000117B04FF0FF30BDE8F08FAB496C
:10198000A942159978DB21F0004183468846A84A90
:10199000A84BFEF7EEFC0022A74BFEF743FCFEF738
:1019A000A8FE0990FEF794FE06460F469C4A534651
:1019B000FEF7DFFC43465A46FEF7D8FC80468A46CF
:1019C000984A994B30463946FEF7D3FC2A0D01253B
:1019D0000B9242465346FEF7C9FC032DC4E90001B1
:1019E00039D00B98C1F30A51401A05EB4511113952
:1019F000814230DA9148C346784400EB0510CDF8B7
:101A00000CA00C90D0E9002330463946FEF7B1FC1B
:101A100002460B460491069058460399FEF7A3FC34
:101A200080468A4602460B4658460399FEF79BFCC1
:101A3000049B069AFEF797FC83460C98039139465F
:101A4000D0E902233046FEF794FC5A46039BFEF78A
:101A50008AFC6D1CBDE707980028A2BF099817B043
:101A6000BDE8F08F616881F000416160099817B0AE
:101A70004042BDE8F08FFFE784461598C1F313019B
:101A8000C0F30A50A0F2F5304FEA601800F01F06CC
:101A9000C6F12000139000200690079041F4801EAC
:101AA00005206D4676B1664A08EB00017A4452F88B
:101AB000213002EB8101B3404A68139922FA01F107
:101AC000194305E05F4908EB0002794451F8221000
:101AD000A1FB0E27A1FB0C131A449A4234BF012329
:101AE000002303EB070A05EB8003D3E901B70F449A
:101AF0008F4234BF0121002193448B4411B193459F
:101B000002D903E0934501D2012100E00021C3E99D
:101B100001B7514445F82010011EA0F10100C1DCBD
:101B20000298059F00F10050800F12900298DDE9A5
:101B300003568000FEF7CCFD834628460D91FEF744
:101B40008AFC6FF01D02FEF7ACFDCDE90E013046B8
:101B5000FEF781FC6FF03D02FEF7A3FD80468A464A
:101B60003846FEF778FC6FF05D02FEF79AFD0746F7
:101B7000424653461191FEF755FBDDE90E23FEF771
:101B800051FB5A460D9BFEF74DFB00250E465A466B
:101B900028460D9BFEF7E7FBDDE90E23FEF7E3FB8E
:101BA00042465346FEF7DFFB3A46119BFEF7DEFB4B
:101BB000DFF898A0244A5346FEF7DBFB0746884629
:101BC000234A244B31462846FEF7D3FB3A46434688
:101BD000FEF728FB074688464FF0A8425346314699
:101BE0002846FEF7C6FB3A464346FEF71BFB159A0E
:101BF00012F0004F04D0129A81F00041524212922A
:101C0000C4E90001129817B0BDE8F08FFB21E93F4D
:101C10007CD90240FB21F93F7370032E8A19A33B44
:101C2000000040543163621A61B4D03DFB21394158
:101C300083C8C96D305FE43F0000E03FCC1800006E
:101C4000481800002A180000182D4454FB21F93DC3
:101C50003326A611460B113C2DE9FF4D21F000481B
:101C600007460C46B8F1795F08DAFEF742FD002816
:101C700001BF0020324904B0BDE8F08D3A4623464A
:101C800010461946FEF775FB054602462D480E46DE
:101C90000B460621784400F05DF82A463346FEF7ED
:101CA00068FBDDE9022382468B4638462146FEF773
:101CB00060FB04460F4652465B4628463146FEF717
:101CC00058FB22463B46FEF74EFB07468A464FF03E
:101CD000FF3228463146FEF7E4FC1B4A90450ADAFB
:101CE0003A465346FEF73FFB04B00022BDE8F04DF4
:101CF000134BFEF73BBB154A4245A8BFA8F500159C
:101D00004FF00004B8BF124D22462B46FEF72BFBC6
:101D10000646884622462B4600200949FEF723FB4B
:101D200004460D463A46534630464146FEF71BFBF5
:101D300004B022462B46BDE8F04DFEF717BB00006D
:101D40000000F03F001600003333D33F0000E93FAE
:101D50000000D23F2DE9F0414F1E00EBC7010446C1
:101D6000D1E9000115461E4637F006020DD02A467D
:101D70003346FEF7FEFA7F1E04EBC703D3E90023C8
:101D8000FEF750FA37F00602F1D1022F25D0042FCA
:101D900013D0062F18BFBDE8F0812A463346FEF760
:101DA000E8FAD4E90A23FEF73DFA2A463346FEF75D
:101DB000E0FAD4E90823FEF735FA2A463346FEF75F
:101DC000D8FAD4E90623FEF72DFA2A463346FEF761
:101DD000D0FAD4E90423FEF725FA2A463346FEF763
:101DE000C8FAD4E90223FEF71DFA2A463346FEF765
:101DF000C0FAD4E90023BDE8F041FEF713BA0000B1
:101E00002DE9FF4D054621F0004084B00C46B0F1AD
:101E1000795F0BDA2846FFF736FD042808BF00F08B
:101E20006FF8284608B02146BDE8F08D2A460B46DB
:101E30001046FEF79EFA06460F462A462346FEF750
:101E400098FA804626488A4632463B460521784421
:101E5000FFF780FF83461098029160B3214A224B1E
:101E600040465146FEF785FACDE900015A46404604
:101E70005146029BFEF77DFA82468846DDE906015F
:101E80004FF0FF32FEF70DFC52464346FEF76BFA69
:101E900032463B46FEF76DFADDE90623FEF763FAAC
:101EA000DDE90023FEF75FFA08B02A462346BDE8C5
:101EB000F04DFEF75BBA0B465A4630463946FEF700
:101EC00058FA084A084BFEF7ADF942465346FEF76A
:101ED00050FA08B02A462346BDE8F04DFEF7A2B9F5
:101EE0003E150000495555555555C5BF0122FEF711
:101EF000D8BB0022134610461146FEF763BB000014
:101F0000024A00201107FEF7CCBB000001FDFFFFD5
:101F100002E008C8121F08C1002AFAD170477047B2
:101F2000002001E001C1121F002AFBD17047000010
:101F30000149086070470000A400002096B0FEF739
:101F40004BFDFFF7F7FBFFF761FA11200090034606
:101F5000024601460190FFF7B0FA2F4800F0A5FBBA
:101F60002D48143000F0ACFB2B49012014310860DF
:101F700001F1140000F0A4FB274902202831086079
:101F800001F1140000F09CFB234903203C31086060
:101F90002839214800F097FB1F491F48283100F0DD
:101FA00092FB1D491C483C3100F08DFB04210022AE
:101FB000084600F0C7FD194C14221949A06002A878
:101FC000FEF70CF9002102A800F03EF81449E06089
:101FD0001422143107A8FEF701F9002107A800F028
:101FE00033F80F492061142228310CA8FEF7F6F8C7
:101FF00000210CA800F028F80949606114223C3146
:1020000011A8FEF7EBF8002111A800F01DF8A0615F
:1020100000F015F8FEE70000A800002000000020F6
:102020002C32000801460020842900D0C81C7047CB
:1020300010B500B9012000F0DFFB002010BD10B585
:1020400000F064FC002010BD3EB504460D46B0F91A
:102050000800FFF7E7FF02A9CDE90001208A2B461F
:1020600082B2D4E9001000F05BFF012801D000200B
:102070003EBD02983EBD00002DE9F041184C0F46D0
:10208000054666692068001D00F0FCFA38B9206832
:1020900090F82C1001208840A1698143A161681C3F
:1020A00007D137B12168BDE8F0410E48091D00F0A5
:1020B00022BB20683544B5424560216805D2A0683E
:1020C000BDE8F041091D00F0FEBA6068091D00F08E
:1020D000FAFA206B854200D22563BDE8F08100004A
:1020E00044000020140200202DE9F041054600F0D4
:1020F0000FFB2E4C2069401C206120682C4F10B132
:10210000E06940B32DE025602069012829D100262F
:1021100006EB860007EB800000F0C7FA761C072E5E
:10212000F6D323488C3000F0C0FA2148A03000F0EC
:10213000BCFA1F48B43000F0B8FA1D48C83000F0AF
:10214000B4FA1B48DC3000F0B0FA19488C306060FB
:102150001430A06005E02068E96AC06A884200D8AF
:102160002560E06A401CE062E96A0120A2698840BB
:102170001043A06101EB810007EB8000291D00F0F6
:10218000BAFA00F0E5FAE06900280CD02068E96AA4
:10219000C06A884207D207494FF080500860BFF3F9
:1021A0004F8FBFF36F8FBDE8F08100004400002027
:1021B0003801002004ED00E030B4026C0B46002A28
:1021C0000BD0C1681144C1604468A14201D30168C9
:1021D000C16030BC1846FEF701B830BC70472DE92D
:1021E000F041856B174604460026026C82B1C7B1E8
:1021F000E068FDF7F3FFE168206C091AE1602268EE
:10220000914202D26168081AE060022F16D017E0EE
:102210002068A8B9606800F021FF064600206060D1
:102220000EE0A068FDF7DAFF216CA0680844A0600A
:102230006168884204D32068A06001E005B16D1E8A
:102240006D1CA5633046BDE8F08110B50446006BF7
:1022500000F092FA2046BDE8104000F08DBA000070
:102260000F4842F21071420705D0C01D0C4A20F001
:102270000700821A891A0B4A00230144C2E90003AD
:102280000839103A21F0070111604B600B600B1AFE
:10229000C0E9001393604FF000405360D060704776
:1022A0002802002090000020144E154CA6F1C8070B
:1022B0004FF08058DFF84C9012E000BF00F028FA91
:1022C000F068C568281D00F0DDF92069401E206116
:1022D000E068401EE06000F03BFA2846FFF7B5FFDB
:1022E000E0680028EAD138680128F9D9C9F80080E7
:1022F000BFF34F8FBFF36F8FF2E7000000020020A3
:102300004400002004ED00E02DE9F0479A46DDE9A5
:10231000098481466FF00303206B03EB82021044B3
:10232000089D20F00706700707D0502080F3118821
:10233000BFF34F8FBFF36F8FFEE723180A5C83F85C
:1023400034200A5C12B1401C1028F6D3002784F810
:102350004370072D00D30625E562C4E91157201DFF
:1023600000F0AEF904F1180000F0AAF92461C5F1FB
:1023700007006462A061E76484F8507052464946E1
:10238000304600F01DF92060B8F1000F01D0C8F808
:102390000040BDE8F087000030B5114900E011466B
:1023A0000A688242FBD34B685C18844203D14068C0
:1023B00018444860084643681C18944209D1084CE8
:1023C000103C2468A24209D052681A4442600A684C
:1023D00012680260814200D0086030BD0460F9E7F5
:1023E0009000002010B5044600F092F9A06B28B1CF
:1023F0005FF0000400F0ACF9204610BD0124F9E7BD
:1024000006484168096829B14168C968C9684968CE
:10241000016370474FF0FF31FAE7000044000020ED
:1024200008484068401C4FF0500080F3118804D0E9
:10243000BFF34F8FBFF36F8FFEE7BFF34F8FBFF335
:102440006F8FFEE798000020002150B10A4B4269CF
:102450009A420FD1806AA3F1280290420AD040B17B
:1024600008E0502080F31188BFF34F8FBFF36F8FC8
:10247000FEE7012108467047140200202DE9F041D3
:10248000044600F045F994F9455004F1240609E0AA
:10249000606A48B1304600F02DFE08B100F0DAF96C
:1024A0006D1E6DB2002DF3DC4FF0FF3684F84560F1
:1024B00000F04EF900F02CF994F9445004F11007A3
:1024C00009E0206948B1384600F014FE08B100F078
:1024D000C1F96D1E6DB2002DF3DC84F84460BDE8D7
:1024E000F04100F035B900002DE9F0410546002724
:1024F00000F09EFA314E306808B9FFF7B1FEF0687F
:1025000005424BD1C5B3083568070ED005F007006A
:10251000C0F108000544680707D0502080F31188F7
:10252000BFF34F8FBFF36F8FFEE72DB37068854207
:1025300034D82248103001460C6801E020460C4691
:102540006168A94202D221680029F7D131688C4222
:1025500024D007682168016060680837411B102992
:102560000FD96019420708D0502080F31188BFF3BB
:102570004F8FBFF36F8FFEE710E041606560FFF79C
:102580000BFF61687068401A7060B268904200D2B8
:10259000B060F06801430020C4E9000100F0E4FDF0
:1025A000780707D0502080F31188BFF34F8FBFF317
:1025B0006F8FFEE73846BDE8F08100008000002004
:1025C00010B5031F4FF080741C601B1F21F0010128
:1025D0001960191F024B0B60143940380A6010BD96
:1025E0002124000800B5254B21F0004287B09A4213
:1025F00003DC0022134600922BE0214B9A4208D1C3
:1026000040B94FF00100FFF793FCFFF772FC07B0F1
:1026100000BD03DBFFF76AFC07B000BD02AAFFF7AD
:1026200057F910F003014FF001000DD0012914D02B
:1026300002291AD00DF1080C9CE80F00FFF70CFBE3
:1026400007B081F0004100BD0DF1080C00909CE83E
:102650000F00FFF7D5FB07B000BD0DF1080C9CE89B
:102660000F00FFF7F9FA07B000BD0DF1080C00905C
:102670009CE80F00FFF7C4FBE2E70000FB21E93F05
:102680000000F07FD0E9013201699A60D0E90123AE
:102690005A604A68824201D182684A60002202611F
:1026A0000868401E08600868704700F108014FF094
:1026B000FF32C0E90112C160016100210160704771
:1026C00000210161704730B50B685A1C02D000F13F
:1026D000080202E0026904E02246546825689D422F
:1026E000FAD953684B6099608A605160086101684B
:1026F000491C016030BD42684A6093688B609368F2
:102700005960916008610168491C016070470000D0
:10271000502080F31188BFF34F8FBFF36F8F0A49AA
:102720004868401C486001280CD10848006810F037
:10273000FF0F07D0502080F31188BFF34F8FBFF3F6
:102740006F8FFEE7704700009800002004ED00E066
:102750000849486828B1401E486001D180F31188BB
:102760007047502080F31188BFF34F8FBFF36F8FF6
:10277000FEE700009800002070B5002827D0144D17
:10278000A0F108046168E868014207D1502080F395
:102790001188BFF34F8FBFF36F8FFEE722683AB106
:1027A000502080F31188BFF34F8FBFF36F8FFEE788
:1027B0008143616000F03CF96068696808446860C2
:1027C0002046FFF7E9FDBDE8704000F0CDBC70BDCC
:1027D000800000204FF0E020002101618161054967
:1027E0004FF47A720968B1FBF2F1491E4161072189
:1027F000016170474000002010B5020014D00F485E
:10280000806B38B1502080F31188BFF34F8FBFF336
:102810006F8FFEE700F00CF900211046FFF72CFC4B
:1028200000F0A2FC002807D105494FF08050086055
:10283000BFF34F8FBFF36F8F10BD00004400002027
:1028400004ED00E002498A6A02604969416070470C
:1028500044000020014901204862704744000020E4
:1028600010B50C4650B1094909681831FFF72BFF24
:102870002046BDE810400121FFF7FEBB502080F349
:102880001188BFF34F8FBFF36F8FFEE74400002026
:1028900070B504002BD01A4D286884422FD0FFF762
:1028A00037FF2046FFF7D0FDE8B1201DFFF7EAFE15
:1028B000E06A0121AA6981401143A961114900EB35
:1028C000800001EB8000211DFFF715FFE06A2968F9
:1028D000C96A884207D30C494FF080500860BFF3A3
:1028E0004F8FBFF36F8FBDE87040FFF731BF5020AF
:1028F00080F31188BFF34F8FBFF36F8FFEE770BD7A
:10290000440000203801002004ED00E01CB515480B
:102910000024CDE900402346802213A1144800F092
:10292000FFFA012809D0401C1AD1502080F31188E9
:10293000BFF34F8FBFF36F8FFEE7502080F31188F6
:10294000BFF34F8FBFF36F8F06484FF0FF3134381E
:1029500001630121C1614461BDE81C4000F09EB8E3
:102960001CBD00007800002049444C4500000000D8
:10297000A922000870B50446FFF7CAFE294D04B924
:102980002C68201DFFF77EFE58B9E06A264A00EB4E
:10299000800152F8211021B901218140A8698843A2
:1029A000A861A06A18B104F11800FFF76BFE1E4879
:1029B000211DDC30FFF79FFE94F85000002601280F
:1029C00001D184F85060FFF7C3FEE86928B1FFF732
:1029D0009FFEFFF715FDFFF7BBFE2868844213D169
:1029E000E86990B1A86B38B1502080F31188BFF32B
:1029F0004F8FBFF36F8FFEE70C494FF08050086098
:102A0000BFF34F8FBFF36F8F70BD0748DC30006896
:102A10002969884201D12E6070BDBDE8704000F088
:102A20000FB80000440000203801002004ED00E051
:102A30000248816B491C81637047000044000020FC
:102A40001448816B11B1012141627047002141623C
:102A50008169B1FA81F1C1F11F0101EB81020E49D7
:102A600051F822306BB101EB820101F108034A6891
:102A700052684A609A4201D152684A60D168016046
:102A80007047502080F31188BFF34F8FBFF36F8FD3
:102A9000FEE7000044000020380100201CB5264954
:102AA00008780190FF20087008788DF800009DF8E4
:102AB00000009DF8002000F0F000904207D0502068
:102AC00080F31188BFF34F8FBFF36F8FFEE79DF840
:102AD00000001A4B00F0500018700720986005E0C5
:102AE0009DF8002052008DF80020401E9DF8002027
:102AF0001206F5D49860032807D0502080F311887F
:102B0000BFF34F8FBFF36F8FFEE74FF440709860B5
:102B1000019808700A48016841F470010160016879
:102B200041F070410160FFF755FE00205860FDF74D
:102B3000F9FA00201CBD000000E400E0980000202D
:102B400020ED00E070B50E46050013D0D6B105FBB0
:102B500006F04830FFF7C8FC040009D004F1480132
:102B600020468EB10160C0E90F56012100F00EF839
:102B7000204670BD502080F31188BFF34F8FBFF304
:102B80006F8FFEE70020E4E70060ECE770B50D46CC
:102B9000040025D0FFF7BCFDD4E90F20216802FB1B
:102BA000001161600021A1632168A1600A46D4E997
:102BB0000F01401E00FB0121E16021464FF0FF3074
:102BC00001F8440F487004F110008DB1FFF76DFD5E
:102BD00004F12400FFF769FDFFF7BAFD012070BD85
:102BE000502080F31188BFF34F8FBFF36F8FFEE744
:102BF00021690029F0D000F07DFA0028ECD00449CA
:102C00004FF080500860BFF34F8FBFF36F8FE3E743
:102C100004ED00E02DE9FF4782B01D468A464FF0E3
:102C20000008040003D0BAF1000F08D011E05020D2
:102C300080F31188BFF34F8FBFF36F8FFEE7206CD7
:102C400038B1502080F31188BFF34F8FBFF36F8FDF
:102C5000FEE7022D0AD1E06B012807D0502080F357
:102C60001188BFF34F8FBFF36F8FFEE700F084F939
:102C70003F4F4FF000094FF0805648B9049838B1E3
:102C8000502080F31188BFF34F8FBFF36F8FFEE7A3
:102C9000FFF73EFDA06BE16B884207D3022D05D004
:102CA0000498D0B1B8F1000F1AD01EE02A46514660
:102CB0002046FFF794FA616A19B104F1240000F08C
:102CC00019FA20B13E60BFF34F8FBFF36F8FFFF74C
:102CD0003FFD012006B0BDE8F087FFF739FD22E097
:102CE0006846FFF7AFFD4FF00108FFF731FDFFF732
:102CF0009FFEFFF70DFD94F94400401C01D184F8BC
:102D0000449094F94500401C01D184F84590FFF7A8
:102D10001FFD04A9684600F0C9F830B12046FFF74E
:102D2000ADFB00F021FA0020D4E7FFF7F1FCA06B27
:102D3000E16B884213D1FFF70BFD04F110000499F9
:102D4000FFF78EFD2046FFF799FB00F00DFA0028F3
:102D50009ED13E60BFF34F8FBFF36F8F98E7FFF7B1
:102D6000F7FC2046FFF78AFB00F0FEF990E7000031
:102D700004ED00E02DE9F747002683B08A46040001
:102D800003D0BAF1000F08D011E0502080F3118871
:102D9000BFF34F8FBFF36F8FFEE7206C38B1502029
:102DA00080F31188BFF34F8FBFF36F8FFEE700F002
:102DB000E3F8DFF8F4804FF000094FF0805748B98E
:102DC000059838B1502080F31188BFF34F8FBFF3BF
:102DD0006F8FFEE7FFF79CFCA56BC5B151462046FF
:102DE000FFF7EAF96D1EA563206950B104F11000E8
:102DF00000F080F928B1C8F80070BFF34F8FBFF31F
:102E00006F8FFFF7A5FC012006B0BDE8F08705989D
:102E100008B11EB106E0FFF79BFC27E06846FFF70C
:102E200011FD0126FFF794FCFFF702FEFFF770FC8F
:102E300094F94400401C01D184F8449094F9450071
:102E4000401C01D184F84590FFF782FC05A9684633
:102E500000F02CF8002820460AD0FFF70FFB00F006
:102E600083F92046FFF7BEFA0028B3D00020CBE755
:102E7000FFF7B8FA90B104F124000599FFF7F0FCD0
:102E80002046FFF7FBFA00F06FF90028A2D1C8F83E
:102E90000070BFF34F8FBFF36F8F9BE72046FFF7A4
:102EA000EDFA00F061F995E704ED00E02DE9F0415D
:102EB0000C46050011D0C4B1FFF72AFC174B5A6924
:102EC0006E682068911B471C17D02F689B6A9F4231
:102ED00019D0964217D8012410E0502080F31188B1
:102EE000BFF34F8FBFF36F8FFEE7502080F3118841
:102EF000BFF34F8FBFF36F8FFEE70024FFF728FC6F
:102F00002046BDE8F081884205D9401A2060284655
:102F1000FFF798FCF1E700202060DCE74400002088
:102F20002DE9FF5F8346DDE90E87994616468A46FE
:102F30009000FFF7D9FA05001AD05420FFF7D4FA11
:102F4000040012D025630021CDE90241CDE90087BC
:102F50004B46324651465846FFF7D6F92046FFF712
:102F6000C3F8012004B0BDE8F09F2846FFF704FC39
:102F70004FF0FF30F6E700000548C16919B1806BDA
:102F800018B10020704701207047022070470000F0
:102F9000440000202DE9F0412E4C0027A06B40B1E9
:102FA000206A401C2062606A00B101273846BDE8F3
:102FB000F0816669761C666113D16068006838B17B
:102FC000502080F31188BFF34F8FBFF36F8FFEE760
:102FD0006068A1686160A060A06A401CA062FFF701
:102FE0000FFA206BDFF87080864209D360680068B2
:102FF00080B16068C068C568686886420DD2206389
:103000002068C06A00EB800158F821000128CAD965
:103010000127C8E74FF0FF30F1E7281DFFF732FB2B
:10302000A86A18B105F11800FFF72CFBE86A012126
:10303000A26981401143A16100EB800108EB81008E
:10304000291DFFF758FBE86A2168C96A8842CDD379
:103050000127CBE7440000203801002070B50400B0
:103060004FF0000140D0214D2868844207D0502005
:1030700080F31188BFF34F8FBFF36F8FFEE7A06C13
:1030800038B1401EA064636CE26A9A422CD040B111
:103090002AE0502080F31188BFF34F8FBFF36F8F6A
:1030A000FEE7201DFFF7EEFA114A012150B9E06A50
:1030B00000EB800352F8233023B9AB6901FA00F02A
:1030C0008343AB61606CE062C0F10700A061E06A1D
:1030D000AB6981401943A96100EB800002EB8000DD
:1030E000211DFFF708FB0121084670BD44000020A8
:1030F000380100202DE9F041C068C468ACB104F18A
:1031000018000746FFF7BEFA154DA86B0126A0B1BF
:1031100039461448FFF7EFFAE06A2968C96A88421D
:103120001CD901206E62BDE8F081502080F3118827
:10313000BFF34F8FBFF36F8FFEE7201DFFF7A2FA9B
:10314000E16AAA6906FA01F01043A86101EB810067
:103150000449B43901EB8000211DDBE70020E2E7E0
:1031600044000020EC0100202DE9F0472C4D002404
:103170002746A86B38B1FFF7CBFAA86B401EA863AF
:10318000A86B40B146E0502080F31188BFF34F8F09
:10319000BFF36F8FFEE72969224E0120D1B3A6F15C
:1031A000B40980463068E8B1F068C46804F11800DA
:1031B000FFF768FA201DFFF765FAE06AAA6908FAC6
:1031C00000F11143A96100EB800109EB8100211D91
:1031D000FFF791FAE06A2968C96A8842E2D3C5F824
:1031E0002480DFE70CB1FFF70BF92C6A44B14646A7
:1031F000FFF7D0FE00B16E62641EF9D10020286294
:10320000686A38B10849012738070860BFF34F8F53
:10321000BFF36F8FFFF79CFA3846BDE8F0870000D8
:1032200044000020EC01002004ED00E0E43300083D
:1032300045180008010000000000000080000000A8
:10324000C433000875130008FDFF000000000000F3
:1032500080000000D433000809130008FDFF0000BF
:103260000000000080000000B833000821150008AD
:1032700000000000000000008000000000000000CE
:103280000000000001020304060708090000000016
:1032900001020304000000004C5555555555A53F4B
:1032A0007751C1166CC156BF9015CB19A001FA3EDB
:1032B000AD529C804F7E92BEC4B1B4BD9EEE213E05
:1032C000D43888BEE9FAA8BD00004054FB21F93F7C
:1032D0003163621A61B4D03D0000601A61B4D03D20
:1032E0007370032E8A19A33B0000002E8A19A33B9A
:1032F000C14920259A837B390000000000000000AE
:103300006E83F9A22915444ED15727FCC0DD34F550
:10331000999562DB4190433CAB6351FE61C5BBDED6
:103320003A6E24B7E0D24D42EA2E49061C92D109EA
:103330001CEB1DFE3EA729B1F53582E88444BB2E67
:1033400026709CE9417E5FB439D69139F4395383B4
:103350008B5F849C3B28F9BDFF97F81F0F9805DE13
:103360008B112FEF1F6D0A5ACF7E366DB709CB2711
:10337000663F464F2DEA5F9EC7BA27757BF1E5EBA6
:10338000F739073DEA92528AB15FFB6B085D8D1FEA
:10339000A6F810111111813FD561C119A0012ABFF2
:1033A0007DFEB157E31DC73EEB9C2B8AE6E55ABE76
:1033B0007CD5CF5A3AD9E53D5254435F47657454A2
:1033C000696D65004C45445F50574D5F5461736BA8
:1033D000000000004C45445F466C6173685F5461B7
:1033E000736B00005461736B5F4D61696E00000088
:1033F0001034000800000020A8000000101F000882
:10340000B8340008A8000020902C0000201F0008FD
:1034100000000000000000000000000000000000AC
:10342000000000000000000000000000000000009C
:10343000000000000000000000000000000000008C
:10344000000000000100000010000000000000006B
:103450000024F40000000000000000000000000054
:10346000000000000000000000000000000000005C
:10347000000000000000000000000000000000004C
:10348000000000000000000000000000000000003C
:10349000000000000000000000000000000000002C
:1034A000000000000000000000000000AAAAAAAA74
:0834B000000000000000000014
:04000005080000ED02
:00000001FF
