:020000040800F2
:10000000902E002099010008BB1F0008C9180008A5
:10001000551F0008470C00083122000800000000AE
:1000200000000000000000000000000001010008C6
:10003000550D00080000000045010008AD20000833
:10004000B3010008B3010008B3010008B3010008C0
:10005000B3010008B3010008B3010008B3010008B0
:10006000B30100086D0D0008B3010008B3010008DA
:10007000B3010008B3010008B3010008B301000890
:10008000B3010008B3010008B3010008B301000880
:10009000B3010008B3010008B3010008B301000870
:1000A000B3010008B3010008B3010008B301000860
:1000B000B3010008B301000879210008B30100086A
:1000C000B3010008B3010008B3010008B301000840
:1000D000B3010008B3010008B3010008B301000830
:1000E000570D0008B3010008B3010008DFF80CD079
:1000F00000F08AFB00480047092A0008902E0020E3
:10010000224B19680868B0E8F00F80F30988BFF344
:100110006F8F4FF0000080F311884EF00D0E704786
:100120000000000006480068006880F3088862B696
:1001300061B6BFF34F8FBFF36F8F00DF00BF00BF0B
:1001400008ED00E0EFF30980BFF36F8F0F4B1A68E3
:1001500020E9F00F106008B54FF0500080F31188CF
:10016000BFF34F8FBFF36F8F03F086FB4FF000009C
:1001700080F31188BDE8084019680868B0E8F00FFE
:1001800080F30988BFF36F8F704700BF9400002091
:10019000EFF3058070470000064880470648004797
:1001A000FEE7FEE7FEE7FEE7FEE7FEE7FEE7FEE727
:1001B000FEE7FEE729210008ED000008202A04DB05
:1001C000203A21FA02F00021704721FA02F3D040D0
:1001D000C2F12002914008431946704740EA0103EA
:1001E0009B0703D009E008C9121F08C0042AFAD2ED
:1001F00003E011F8013B00F8013B521EF9D27047B1
:10020000D2B201E000F8012B491EFBD27047002258
:10021000F6E710B513460A4604461946FFF7F0FF05
:10022000204610BD80EA010210B502F000434000F4
:1002300022D04A001FD0010E01EB1261C0F356001C
:10024000C2F3560240F4000042F40002A0FB022078
:1002500000047F39140400D0401C50EA124001D43D
:100260004000491EC2B20C0604EBD010401C4008EE
:10027000802A02D003E0002010BD20F001000029F8
:1002800000DA0020184310BD2DE9FE4F804681EAB8
:100290000300C00F0C46009021F0004123F0004500
:1002A000B8EB0200A94105D24046214690461C46C3
:1002B0000B46024623F00040104347D0270DC7F3FA
:1002C0000A00C3F30A510290401A019040286BDAE9
:1002D000C3F3130040F4801B0098924620B1002322
:1002E000D2EB030A63EB0B0B01985946C0F14002B5
:1002F000504600F0BDF906460D4650465946019A53
:1003000000F0C5F910EB08006141002487EA1152A2
:1003100084EAE7731A4340D0009A62B3019A012A33
:100320004FEA075215DC001B61EB02014FF000425F
:1003300002EA0752CDE90042001C41F58011324625
:100340002B4600F0FCF903B0BDE8F08F4046214693
:10035000F9E7001B61EB0201001C41F58013001856
:100360005B412018A2F5001747EB030140EAD57066
:10037000B6196D4111E06D084FEA360645EAC075C1
:100380004FEA0752001B61EB0201001C41F580118E
:1003900049084FEA30000019514132462B4603B05C
:1003A000BDE8F04F00F0BCB90098012240000023E6
:1003B000D0EB020263EBE073009821464FEAE07451
:1003C000B8EB000061EB0401E9E783F000435BE771
:1003D00081F0004158E72DE9FE4F81EA030404F063
:1003E000004421F0004100944FF0000B23F0004343
:1003F00050EA01045ED052EA03045BD0C3F30A540E
:10040000C1F30A552C44A4F2F3340194A0FB025426
:10041000C1F3130141F48011C3F3130343F48013B8
:1004200001FB024400FB034E840A970A44EA81540C
:1004300047EA8357A4FB076802958D0A05FB0785E9
:100440004FEA932C04FB0C542705029D4FEA0658F3
:1004500047EA1637B5EB08056EEB070C870E920ED0
:1004600047EA811742EA8312A7FB0201B6EB0B01B0
:1004700064EB00042B0D43EA0C335E1844EB1C5074
:10048000DA465146E7FB0201C5F313044FEA0B338A
:1004900043EA14534FEA0432019C43EA0603A4F1F1
:1004A0000C040294009CCDE900B400F048F903B0BC
:1004B000BDE8F08F00200146F9E72DE9F04D81EA13
:1004C000030404F0004B21F0004514464FF0000AED
:1004D00023F0004150EA050220D054EA01021DD069
:1004E000C5F30A570246C5F31303C1F31300C1F362
:1004F0000A5640F4801543F48013A7EB0608101B3E
:10050000D64608F2FD3873EB050002D308F1010866
:1005100001E092185B41B8F1000F03DA00200146B8
:10052000BDE8F08D00204FF48011064684460EE0B1
:10053000171B73EB050705D3121B63EB050306437B
:100540004CEA010C49084FEA300092185B4150EA2E
:100550000107EDD152EA030012D082EA040083EAD7
:100560000501084305D0101BAB4106D20122002330
:1005700006E000224FF0004302E06FF0010253104A
:100580001AEB06004CEB085110EB0A0041EB0B0193
:10059000BDE8F04D00F0C4B80EB5C10F80EAE070C0
:1005A0000844CA07002140F233438DE80E000A4692
:1005B0000B4600F0C4F803B000BD0EB540F2334165
:1005C00002910021CDE900110A460B4600F0B7F870
:1005D00003B000BD00F0004220F00040C10DC0F3A8
:1005E000160040F400007F2901DA002070479629A8
:1005F00003DCC1F19601C84001E096398840002A29
:10060000F4D040427047C1F30A5210B5C1F3130150
:1006100040F2FF3341F480119A4201DA002010BD0C
:1006200040F233439A42A2F2334203DC5242FFF7D4
:10063000C5FD10BD904010BD01F0004330B421F065
:10064000004150EA010206D00A0DA2F56072C1F322
:100650001301002A02DC30BC00207047440F44EA3A
:10066000C104C100E01830BC00EBC25000F021B85A
:10067000202A04DB203A00FA02F100207047914062
:10068000C2F1200320FA03F3194390407047202A57
:1006900006DBCB17203A41FA02F043EAE07306E0AA
:1006A00041FA02F3D040C2F12002914008431946BA
:1006B00070470029A8BF7047401C490008BF20F0C0
:1006C0000100704710B4B0FA80FC00FA0CF050EA58
:1006D000010404BF10BC704749B1CCF1200421FAD9
:1006E00004F411FA0CF118BF012121430843A3EBD4
:1006F0000C01CB1D4FEA00614FEA102042BF0020E1
:1007000010BC704700EBC35010440029A4BF10BCBC
:100710007047401C490008BF20F0010010BC704722
:1007200010B5141E73F1000408DA401C41F10001F9
:1007300092185B411A4301D120F0010010BD2DE950
:10074000F04D92469B4611B1B1FA81F202E0B0FA47
:1007500080F220329046FFF78BFF04460F4640EAB6
:100760000A0041EA0B0153465A46084313D011468A
:1007700053EA010019D0C8F140025046FFF71EFDB0
:1007800005460E46504659464246FFF771FF08435C
:1007900005D0012004E020463946BDE8F08D002058
:1007A000054346EAE0762C4337430A986305E40A9A
:1007B000A0EB08000022FD0A44EA47540A3002D5A3
:1007C00000200146E9E7010510196941DDE9084506
:1007D00000196941BDE8F04DA2E770B521F0004372
:1007E00003430CD0C1F30A550024D5EB040564EB98
:1007F0000403D617AD1AB34102DB0020014670BDD9
:10080000201841EB025170BD064C074D06E0E06830
:1008100040F0010394E8070098471034AC42F6D347
:10082000FFF768FC584500087845000870B5C1F32B
:100830000A5201F000450024C1F3130140F2FF33D6
:1008400041F480119A4201DA002070BD40F2334336
:100850009A42A2F2334203DC5242FFF7AFFC00E0BF
:1008600090402C43F1D0404270BD10B5AF2000F055
:10087000CDF910F0010000D0012010BD70B5FFF7D8
:10088000F4FFE8B300F04DF8C00743D0AF2000F00C
:10089000BDF9C0073ED0AE2000F0B8F980B38200A9
:1008A0001D49FC2000F040F8C1B2042932D31A4C93
:1008B0000020843C21E0184A94F88050135C635572
:1008C000154B024494F88060643B5578F55494F8D5
:1008D000806020339578F554D3780F4A94F880508F
:1008E000243AAB5494F88020521C84F8802094F869
:1008F0008120521C84F88120001D8842DBDB00E04F
:1009000008E002F057F908B101F0EEFF002004F80A
:10091000800F6070002070BD0C020020922000F05B
:1009200075B9802000F072B92DE9F04115460E46E8
:100930000746002400F025F9722000F0FFF800F0CF
:1009400051F9384600F0FAF800F04CF900F019F9C6
:10095000732000F0F3F800F045F90AE0012D0FD004
:100960005FF0010000F08AF83055641C6D1EA4B2DF
:10097000ADB2002DF2D100F019F92046BDE8F081AA
:100980000020EFE7DFF84CB0134DDFF850904FF444
:10099000004A641CE4B2C82C00D100240A21E86992
:1009A00003F0EEF9C7B25146584600F037FB064651
:1009B000B8F1AB0F09D147B1FFF760FF2EB901F0D5
:1009C00093FF0020287202F097FC012002F0CEF87D
:1009D000DFE7000000080140000000207C0000204C
:1009E00010B54C2000F070F84C2000F07DF8052088
:1009F00000F0C0F9482000F067F8052000F0BAF9CF
:100A0000BDE810404C2000F05FB810B54C2000F05D
:100A10005BF8482000F068F8052000F0ABF94820AA
:100A200000F052F8052000F0A5F9BDE810404C2078
:100A300000F04AB830B50F4885B0816941F008012F
:100A4000816180694FF4805400F008000490002018
:100A5000CDE90040012002900220074D0390694635
:100A6000284600F0EBF92146284600F0D7FA05B0F9
:100A700030BD0000001002400008014070B506467D
:100A80000024FFF7D7FF00254C2000F01DF80520BB
:100A900000F070F9482000F017F86006040EFFF728
:100AA000C9FF08B1641CE4B26D1CEDB2082DEBD394
:100AB00016B1012E03D004E0FFF7A7FF01E0FFF716
:100AC0008FFF204670BD0000064B4FF400614828A0
:100AD00005D04C2805D10022184600F0A4BA012206
:100AE000FAE770470008014070B50446114886B027
:100AF000816941F00801816180694FF4805500F0FF
:100B0000080004900120CDE90050029002200A4E16
:100B100003906946304600F091F9482C08D04C2CDF
:100B200004D100222946304600F07DFA06B070BD9F
:100B30000122F7E7001002400008014070B50446AA
:100B400000254C20FFF7C0FF200601D5482000E01B
:100B50004C20FFF7C9FF6006040E052000F00AF9DB
:100B60004820FFF7B1FF052000F004F94C20FFF703
:100B7000ABFF052000F0FEF86D1CEDB2082DE3D3AD
:100B800070BD10B54820FFF7AFFF4820FFF79CFF6E
:100B9000052000F0EFF84C20FFF7A6FF052000F03D
:100BA000E9F8BDE810404C20FFF78EBF10B54C208F
:100BB000FFF78AFF052000F0DDF84C20FFF794FFD7
:100BC000052000F0D7F84820FFF77EFF052000F051
:100BD000D1F84820FFF788FFBDE81040052000F05D
:100BE000C9B8000010B50024FFF724FF4820FFF724
:100BF0006BFFFFF71FFF0449087000B101244C2070
:100C0000FFF762FF204610BD5C00002010B50446CF
:100C1000FFF7B7FF7220FFF791FFFFF7E3FF2046D2
:100C2000FFF78CFFFFF7DEFFFFF7ABFF7320FFF747
:100C300085FFFFF7D7FF0120FFF720FF0446FFF7EE
:100C4000B5FF204610BDFEE770B51848016821F4D5
:100C500070410160016841F400410160144D154C80
:100C600004E0401C2070012001F0C0FED5F82C01EA
:100C70000028207802D06428F3D312E0642810D230
:100C80000020207004E0401C2070012001F0AEFE26
:100C9000D5F82C0110B920786428F4D32078C8281E
:100CA00001D3012070BD002070BD0000040C014084
:100CB0000080214280000020064C00BF00F00CF8AC
:100CC000E07110B1A06B02F071FD012001F04EFF48
:100CD000F4E700000000002010B500F005F8BDE8C2
:100CE0001040FFF7B1BF00000C4810B5016821F4B7
:100CF00070410160016841F440510160084C0020DE
:100D0000C4F8AC01142004F5D67401F061FE012092
:100D10002060BDE810401E2001F068BE040C0140B8
:100D20000080214270B50D46044601F07AF9D020CA
:100D300001F054F901F0A6F9204601F04FF901F055
:100D4000A1F9284601F04AF901F09CF9BDE870408C
:100D500001F07CB9704710B54FF4806000F062F884
:100D6000BDE810404FF4004000F05CB8082000F0EF
:100D700059B8000070B5044600F05AF90546601CE9
:100D800002D004480078044400F052F9401BA0420D
:100D9000FAD370BD8400002070B51E4CB0F5004F32
:100DA0000BD04FF48065A84226D11B4E2946304611
:100DB00000F034F9207148B118E0FFF756FDD8B1C2
:100DC0001449E069203102F0F1FE15E040F2EE2115
:100DD0000220401C8842FCDB0221304600F01EF954
:100DE00060710128607A13D0401E60722079A07073
:100DF0006079E07009480560206A002807D008493A
:100E00004FF080500860BFF34F8FBFF36F8F70BDFE
:100E1000401CEAE700000020000C014014040140DF
:100E200004ED00E0044910B50A68024202D00860EF
:100E3000FFF7B2FF10BD0000140401402DE9F84F88
:100E4000DFF8B891002409F1040A0AF1040B2346E3
:100E50000F270BF1040EC9E00125A5402A40AA4244
:100E60007DD1674ED1F804C0ACEB0608B44532D052
:100E700014DCBCF1030F3AD009DCBCF1000F2AD01E
:100E8000BCF1010F1CD0BCF1020F31D11DE0BCF14F
:100E9000110F17D0BCF1120F2AD119E0B8F5881F35
:100EA00019D006DCB8F5803F15D0B8F5801F1FD1EA
:100EB00011E0B8F5001F0ED0B8F5041F18D10AE0F4
:100EC000CB6815E0CB681B1D12E0CB6808330FE040
:100ED000CB680C330CE08B682BB1012B4FF008036F
:100EE00003D0456104E0042302E0056100E0002333
:100EF000FF2A01D8064601E000F104064FEA840506
:100F000001D9A5F12005D6F8008007FA05FC28EAEA
:100F10000C0803FA05F548EA0508C6F800804D6894
:100F2000ED0062D5374DAE6946F00106AE61AD69A0
:100F300024F0030605F001050095334D06EB050C82
:100F4000DCF80850A607360F07FA06F825EA080568
:100F5000DFF8B880404503D14FF0000817E044E0C7
:100F6000DFF8AC80404502D14FF001080FE0DFF818
:100F7000A480404502D14FF0020808E0DFF89880D5
:100F8000404502D14FF0030801E04FF0040808FA91
:100F900006F848EA0508CCF808804D68D9F80060E2
:100FA000ED034D4601D5164300E096432E604D6893
:100FB000DAF80060AD03554601D5164300E09643CC
:100FC0002E604D68DBF80060ED025D4601D51643EA
:100FD00000E096432E604D68DEF80060AD02754675
:100FE00001D5164300E096432E60641C0D682A4626
:100FF000E5407FF431AFBDE8F88F00000004014008
:1010000000001110001002400000014000080140E3
:10101000000C0140001001400014014080680840AD
:1010200000D0012070470AB1016170470904FBE755
:1010300001488068704700008400002002488168F1
:10104000027811448160704784000020074810B581
:10105000016841F010010160032000F095F80020C4
:1010600000F006F800F03EF8002010BD002002401D
:1010700000B5014687B000221E2000F065F81E2052
:1010800000F054F81348C16941F00401C161C0691E
:1010900005A900F004000690684600F01DF900F074
:1010A00041F90D494000B0FBF1F10D480B4A491ED2
:1010B0000260416040F2E7320021C0E90321816013
:1010C00000F008FB10B1012007B000BD044800F09B
:1010D0001DFBF9E70010024040420F0000080040ED
:1010E000480100200F4808B5816941F00101816184
:1010F000816901F001010091C16941F08051C16134
:10110000C069002200F0805000900F21901E00F076
:101110001BF80548416821F0E06141F00071416031
:1011200008BD00000010024000000140002809DB5B
:1011300000F01F02012191404009800000F1E020F1
:10114000C0F8001170470000F0B40E4B1B680C464D
:10115000C3F30223C3F10705042D00D90425191D8B
:10116000072901D2002300E0DB1E012606FA05F163
:10117000491E214099409E40761E16403143F0BCE6
:1011800001F06BB80CED00E0064900F007020868BA
:101190004FF6FF03184040EA0220034A104308605C
:1011A000704700000CED00E00000FA052DE9F04763
:1011B0000F46050061D0434E306800F00700B8428A
:1011C00009D2306820F0070038433060306800F002
:1011D0000700B84251D128683B4C810712D540071F
:1011E00003D5606840F4E06060602878000703D5AC
:1011F000606840F4605060606068A96820F0F000AA
:10120000084360602878C00728D06868012810D09B
:101210002168022810D0890700292EDA616821F0A0
:10122000030101436160FFF703FF804641F2883903
:101230000DE021688903EFE78901EDE7FFF7F8FE8C
:10124000A0EB0801494502D90320BDE8F08760689A
:10125000696800F00C00B0EB810FEFD1306800F04E
:101260000700B8420BD9306820F0070038433060DF
:10127000306800F00700B84201D00120E5E7287887
:10128000400705D56068E96820F4E06008436060C5
:101290002878000706D56068296920F4605040EA84
:1012A000C100606000F04EF86168084AC1F30311A4
:1012B000515CC8400649086006480068FFF7D8FE40
:1012C0000020C2E70020024000100240AC430008AA
:1012D00090000020880000200F2202600C4A536812
:1012E00003F003034360536803F0F0038360536823
:1012F00003F4E063C36052684FF4E06303EAD20290
:1013000002610448006800F00700086070470000B0
:1013100000100240002002400148006870470000B1
:10132000900000200448054900684968044AC1F358
:101330000221515CC840704790000020001002401C
:10134000BC43000812A185B00FC98DE80F0014A09E
:10135000144A006804905168134801F00C03042BF0
:1013600010D0082B0ED1C1F38343C9031DF803002D
:101370000AD5516804AAC1F34041515C0A4A50435E
:10138000B0FBF1F005B0704708494843FAE70000A8
:1013900002030405060708090A0B0C0D0E0F1010B6
:1013A000010200000010024000127A0000093D0016
:1013B0002DE9F84F040070D02078C04DC00749D007
:1013C0006868C0F38100012807D06868C0F3810015
:1013D000022809D16868C00306D52868800339D57A
:1013E00060680028E7D035E06068B0F5803F0BD03A
:1013F00010B1B0F5A02F11D0286820F480302860FB
:10140000286820F4802002E0286840F480302860BA
:10141000606890B1FFF70CFE06460AE0286840F4C9
:1014200080202860F0E700BFFFF702FE801B6428E1
:1014300073D828688003F7D50CE0FFF7F9FD06465E
:1014400005E000BFFFF7F4FD801B6428F0D8286892
:101450008003F7D420789A4E80074FF001094FF0AF
:10146000000839D5686810F00C0F07D06868C0F321
:101470008100022809D16868C00306D42868800763
:1014800014D52069012808D110E02069B0B1C6F850
:101490000090FFF7CDFD074605E00AE1FFF7C8FD24
:1014A000C01B0228C4D828688007F7D5286861695E
:1014B00020F0F80040EAC10028600DE0C6F8008086
:1014C000FFF7B6FD074604E0FFF7B2FDC01B022898
:1014D00023D828688007F7D4207800072CD57948CE
:1014E000A169D9B1C0F80090FFF7A2FD074604E05A
:1014F000FFF79EFDC01B02280FD8686A8007F7D54A
:1015000071484FF4FA510068B0FBF1F0009000BF51
:101510000098411E0091FAD20EE080E0C0F80080F1
:10152000FFF786FD074604E0FFF782FDC01B022897
:1015300075D8686A8007F7D42078400760D5E869D5
:101540000027C00008D4E86940F08050E861E869ED
:10155000012700F0805000905C480168C90513D451
:101560000168834641F480710160FFF761FD8246A6
:1015700006E000BFFFF75CFDA0EB0A0064284ED830
:10158000DBF80000C005F5D5E06801280AD008B1F5
:10159000052813D0286A20F001002862286A20F06C
:1015A000040002E0286A40F001002862E06841F28D
:1015B000883B98B1FFF73CFD82460BE0286A40F07B
:1015C00004002862EEE700BFFFF732FDA0EB0A013E
:1015D00059455AD8286A8007F6D50CE0FFF728FD50
:1015E000824605E0FFF724FDA0EB0A0159454CD8DF
:1015F000286A8007F6D41FB1E86920F08050E861BE
:10160000E06988B36968C1F38101022944D00228E6
:10161000C6F8608004D0FFF70BFD044638E034E0E4
:10162000FFF706FD074604E0FFF702FDC01B022896
:101630002BD828688001F7D4206AB0F5803F05D107
:101640006868A16820F4003008436860D4E90801A4
:101650000843696821F4741108436860C6F8609013
:10166000FFF7E6FC044606E025E000BFFFF7E0FCDC
:10167000001B022809D828688001F7D51BE000BFAD
:10168000FFF7D6FC001B022802D90320BDE8F88F23
:1016900028688001F4D40EE00128F7D06868226A37
:1016A00000F48031914204D1616A00F470108842E4
:1016B00001D00120EAE70020E8E700000010024026
:1016C000000042428004424290000020007000402E
:1016D0007047704710B5040003D094F83D0010B176
:1016E00007E0012010BD002084F83C00204600F0F7
:1016F0000CF8022084F83D00211D206800F042FD16
:10170000012084F83D00002010BD70470168CA68C0
:1017100042F00102CA600068816801F007010629F1
:1017200003D0016841F0010101600020704770475B
:1017300070B50446006801694FF00005C943890788
:1017400015D4C168C943890711D4E91E016101207C
:101750002077206880698007204602D0FFF7E7FFE6
:1017600004E000F098F8204600F096F8257720680D
:101770000169C943490717D4C168C943490713D44C
:101780006FF004010161022020772068806910F465
:10179000407F204602D0FFF7CAFF04E000F07BF84C
:1017A000204600F079F8257720680169C9430907C8
:1017B00016D4C168C943090712D46FF0080101614A
:1017C000042020772068C0698007204602D0FFF7F8
:1017D000AEFF04E000F05FF8204600F05DF82577EA
:1017E00020680169C943C90617D4C168C943C9063D
:1017F00013D46FF010010161082020772068C069C0
:1018000010F4407F204602D0FFF791FF04E000F083
:1018100042F8204600F040F8257720680169C94366
:10182000C90708D1C168C943C90704D1891E01612C
:10183000204600F033F820680169C943090609D43D
:10184000C168C943090605D46FF0800101612046D3
:10185000FFF73EFF20680169C943490609D4C16802
:10186000C943490605D46FF040010161204600F0EC
:101870001FF820680169C94389060BD4C168C943B0
:10188000890607D46FF0200101612046BDE8704051
:10189000FFF71FBF70BD7047704700000068034925
:1018A000884201D1FFF7CABB704700000008004022
:1018B00070470A21B0FBF1F2B0FBF1F301FB13001A
:1018C00000EB0210C0B27047FEE7000030B50F48D1
:1018D00085B0816941F00801816180694FF48054CD
:1018E00000F0080004900020CDE9004001200290A3
:1018F0000220074D039069462846FFF79FFA2146CC
:101900002846FFF78BFB05B030BD000000100240F9
:10191000000C0140064B4FF40051482805D04C28DC
:1019200005D100221846FFF77EBB0122FAE7704777
:10193000000C014070B50446114886B0816941F041
:101940000801816180694FF4805500F0080004901F
:101950000120CDE90050029002200A4E0390694612
:101960003046FFF76BFA482C08D04C2C04D10022EB
:1019700029463046FFF757FB06B070BD0122F7E756
:1019800000100240000C014008B5184E184C4FF4EE
:1019900080754FF47A774FF0FF38A06A01F006FFA8
:1019A000002229463046FFF73EFB384601F0DEF8BC
:1019B000012229463046FFF736FB384601F0D6F8BB
:1019C00060780028E9D0401CC0B260700528E4D1DE
:1019D00042466946A06902F037F90128DDD1009836
:1019E0000128DAD1A06A01F06FFED6E700080140B5
:1019F0000000002008B54FF00108214E214F224C75
:101A00004FF48075CDF80080E06A01F0CFFE00222F
:101A100029463046FFF707FBD4E9120100223B4676
:101A2000FEF7D9FCFEF7EFFD01F0A0F801222946F0
:101A30003046FFF7F8FAD4E9120100223B46FEF7E0
:101A4000CAFC00223B46FEF7C3FCFEF7DCFD01F0BA
:101A50008DF82078401CC0B2207096280AD184F8F6
:101A6000018000231A466946A06901F0EFFFE06A91
:101A700001F02AFE2078FF28C6D100202070C3E79D
:101A80000008014000003440000000200A4C00BF64
:101A900000F046F8084AE0820E32911E881E00F0DF
:101AA0000DF8054A1432911E881E00F020F801201E
:101AB00001F05CF8ECE70000000000207CB5144663
:101AC0000D4606466B4606223B21682000F062F96F
:101AD00000280BD1BDF8001049BA3180BDF80210C2
:101AE00049BA2980BDF8041049BA21807CBD7CB573
:101AF00014460D4606466B4606224321682000F038
:101B000049F900280BD1BDF8001049BA3180BDF861
:101B1000021049BA2980BDF8041049BA21807CBD61
:101B200008B56B4602224121682000F033F9BDF868
:101B3000000040BA00B2FEF72FFD0022074BFEF76F
:101B4000BCFC074A074BFEF79FFBFEF775FD0649F5
:101B5000FEF768FBFEF73EFD00B208BD0040754091
:101B6000A4703D0AD74342400000C84210B54C2043
:101B700000F06EF84C2000F07BF80120FFF7FAF837
:101B8000482000F065F80120FFF7F4F8BDE81040A8
:101B90004C2000F05DB810B54C2000F059F84820FA
:101BA00000F066F80120FFF7E5F8482000F050F853
:101BB0000120FFF7DFF8BDE810404C2000F048B8E6
:101BC0000E4810B5816986B041F0080181618069D5
:101BD0000B4C00F0080004902020009000200190A1
:101BE000012002900220039069462046FFF726F963
:101BF00020212046FFF712FA06B010BD0010024067
:101C0000000C014070B506460024FFF7D9FF0025FF
:101C10004C2000F01DF80120FFF7ACF8482000F040
:101C200017F86006040EFFF7CBFF08B1641CE4B29E
:101C30006D1CEDB2082DEBD316B1012E03D004E0DC
:101C4000FFF7A9FF01E0FFF791FF204670BD0000FC
:101C5000064B482806D04C2806D1002210211846F1
:101C6000FFF7E1B90122F9E770470000000C0140DD
:101C700030B50446114885B0816941F008018161A1
:101C800080690F4D00F00800049020200090012092
:101C9000019002900220039069462846FFF7CEF893
:101CA000482C08D04C2C04D1002220212846FFF7D4
:101CB000BAF905B030BD0122F7E70000001002407C
:101CC000000C014070B5044600254C20FFF7C0FF12
:101CD000200601D5482000E04C20FFF7C9FF600630
:101CE000040E0120FFF746F84820FFF7B1FF01205E
:101CF000FFF740F84C20FFF7ABFF0120FFF73AF861
:101D00006D1CEDB2082DE3D370BD10B54820FFF770
:101D1000AFFF4820FFF79CFF0120FFF72BF84C2076
:101D2000FFF7A6FF0120FFF725F8BDE810404C2083
:101D3000FFF78EBF10B54C20FFF78AFF0120FFF799
:101D400019F84C20FFF794FF0120FFF713F8482003
:101D5000FFF77EFF0120FFF70DF84820FFF788FF0F
:101D6000BDE810400120FFF705B8000010B50024C1
:101D7000FFF726FF4820FFF76BFFFFF721FF04491D
:101D8000087000B101244C20FFF762FF204610BD0F
:101D9000810000202DE9F0411D4614460F460646FD
:101DA000FFF7B3FF7006000EFFF78CFFFFF7DEFFB3
:101DB0003846FFF787FFFFF7D9FFFFF7A6FF01209F
:101DC00000EB4600C0B2FFF77DFFFFF7CFFF09E051
:101DD000012C0ED05FF00100FFF714FF641E05F820
:101DE000010BE4B2002CF3D1FFF7A4FF0020BDE803
:101DF000F0810020F0E700002DE9F04786B00024D4
:101E00004F480094019402940394816941F01001B9
:101E10008161816901F010010491816941F0200123
:101E20008161816901F020010491816941F004011F
:101E30008161816901F004010491816941F0080127
:101E400081618069DFF8FC8000F008004FF4804574
:101E50000490002229464046FFF7E5F8DFF8E8A0A5
:101E600041F67F17002239465046FFF7DCF8DFF8CD
:101E7000DC90012211464846FFF7D5F800224EF6C5
:101E800030114846FFF7CFF84FF42040CDE9000469
:101E9000694640460294FEF7D1FF009502260125CF
:101EA0000396CDE9015469464046FEF7C7FF009707
:101EB0000396CDE9015469465046FEF7BFFF8020E6
:101EC000CDE90004694650460294FEF7B7FF4EF68E
:101ED0003110CDE90005CDE9024669464846FEF7D6
:101EE000ADFF41F20220CDE9000469464846029464
:101EF000FEF7A4FF164D4FF48160CDE90005694659
:101F000002944846FEF79AFFB003CDE90005694602
:101F100002945046FEF792FF002205210920FFF7A8
:101F200013F90920FFF702F9002205212820FFF705
:101F30000BF92820FFF7FAF806B0BDE8F08700009B
:101F4000001002400010014000080140000C014058
:101F500000002110FEE72DE9F0419846DDE9064535
:101F600016460F46FFF7A5FC01460620FEF7DAFEEF
:101F70003846FFF79EFC01460520FEF7D3FE3046AB
:101F8000FFF797FC01460420FEF7CCFE4046FFF722
:101F900090FC01460220FEF7C5FE2046FFF789FCB3
:101FA00001460120FEF7BEFE2846FFF782FCBDE891
:101FB000F04101460020FEF7B5BE7047064CA06A0E
:101FC00001F0F4FBA06B01F0F1FB206B01F0EEFBE4
:101FD000012000F0CBFDF2E70000002070B50446C0
:101FE00000254C20FFF796FC200601D5482000E094
:101FF0004C20FFF79FFC6006040E0520FEF7BAFE9A
:102000004820FFF787FC0520FEF7B4FE4C20FFF7C1
:1020100081FC0520FEF7AEFE6D1CEDB2082DE3D36A
:1020200070BD10B54820FFF785FC4820FFF772FC13
:102030000520FEF79FFE4C20FFF77CFC0520FEF7F5
:1020400099FEBDE810404C20FFF764BC10B54C2051
:10205000FFF760FC0520FEF78DFE4C20FFF76AFCC1
:102060000520FEF787FE4820FFF754FC0520FEF709
:1020700081FE4820FFF75EFCBDE810400520FEF71A
:1020800079BE000010B50024FFF720FC4820FFF7C0
:1020900041FCFFF71BFC0449087000B101244C20EF
:1020A000FFF738FC204610BD5000002010B550202E
:1020B00080F31188BFF34F8FBFF36F8F01F090FF54
:1020C00018B104494FF080500860002080F3118857
:1020D00010BD000004ED00E030B58FB02821684647
:1020E000FEF795F814210AA8FEF791F801210804DB
:1020F000CDE900100024029402250491CDE9075097
:102100004FF4E01009906846FFF752F90F20CDE92F
:102110000A056802CDE90C4002210AA80E94FFF7D7
:1021200045F80FB030BD00000D48016841F00101D5
:10213000016041680B4A1140416001680A4A114040
:102140000160016821F480210160416821F4FE01F1
:1021500041604FF41F0181600449C003086070476B
:10216000001002400000FFF8FFFFF6FE08ED00E05F
:10217000012000F0FBFCFBE70148FFF7D9BA0000A3
:1021800048010020F0B50268164B174C174D4FF070
:102190008047984205D0B84203D0A04201D0A8425F
:1021A00003D122F070064A683243984205D0B84203
:1021B00003D0A04201D0A84203D122F44074CA68DF
:1021C00022434C6922F08002224302608A68C26284
:1021D0000A688262984201D1096901630121416163
:1021E000F0BD0000002C0140000400400008004049
:1021F0000C4E0D4F0D4D0024142000F0B7FC20466E
:10220000FEF7DBF932463B46FEF7E5F801F088F8C9
:10221000641CE4B2642CC5E91201EDD3012000F086
:10222000A5FCE8E75D36C891BF15A03F000000207F
:10223000FEE7490050EAC12018BF04204A0D18BF2C
:1022400040F0010040F2FF72B2EB515F08BF40F076
:102250000200012808BF052070470907090E002861
:1022600004DB00F1E02080F80014704700F00F005C
:1022700000F1E02080F8141D704700002DE9F74FB1
:10228000144694B00021C4E902111599079121F078
:102290000045C9498D4206DC1599C4E9000117B013
:1022A0000020BDE8F08FC549DFF814A3A9423CDD4A
:1022B0000799C44E0029C44FC44A1599534619DDE5
:1022C000FEF783F8554506D0C14AC24BFEF77DF8AC
:1022D000C4E900010AE04FF0D352BE4BFEF775F897
:1022E00032463B46FEF771F8C4E9000117B0012001
:1022F000BDE8F08FFDF7C8FF554506D0B44AB54B91
:10230000FDF7C2FFC4E900010AE04FF0D352B14B20
:10231000FDF7BAFF32463B46FDF7B6FFC4E90001C0
:1023200017B04FF0FF30BDE8F08FAB49A9421599C7
:1023300078DB21F0004183468846A84AA84BFEF787
:102340004AF80022A74BFDF79FFFFEF76FFA0990AE
:10235000FEF722F906460F469C4A5346FEF73BF825
:1023600043465A46FEF734F880468A46984A994BC7
:1023700030463946FEF72FF82A0D01250B924246CA
:102380005346FEF725F8032DC4E9000139D00B9818
:10239000C1F30A51401A05EB45111139814230DA77
:1023A0009148C346784400EB0510CDF80CA00C9082
:1023B000D0E9002330463946FEF70DF802460B46B9
:1023C0000491069058460399FDF7FFFF80468A4620
:1023D00002460B4658460399FDF7F7FF049B069A01
:1023E000FDF7F3FF83460C9803913946D0E90223A9
:1023F0003046FDF7F0FF5A46039BFDF7E6FF6D1CE4
:10240000BDE707980028A2BF099817B0BDE8F08F74
:10241000616881F000416160099817B04042BDE8F1
:10242000F08FFFE784461598C1F31301C0F30A50FB
:10243000A0F2F5304FEA601800F01F06C6F1200048
:10244000139000200690079041F4801E05206D46F1
:1024500076B1664A08EB00017A4452F8213002EB6B
:102460008101B3404A68139922FA01F1194305E04A
:102470005F4908EB0002794451F82210A1FB0E27B6
:10248000A1FB0C131A449A4234BF0123002303EB2F
:10249000070A05EB8003D3E901B70F448F4234BF2D
:1024A0000121002193448B4411B1934502D903E0EB
:1024B000934501D2012100E00021C3E901B7514455
:1024C00045F82010011EA0F10100C1DC0298059F13
:1024D00000F10050800F12900298DDE90356800051
:1024E000FEF75AF8834628460D91FEF766F86FF01E
:1024F0001D02FEF772F9CDE90E013046FEF75DF8D8
:102500006FF03D02FEF769F980468A463846FEF7CD
:1025100054F86FF05D02FEF760F9074642465346F5
:102520001191FDF7B1FEDDE90E23FDF7ADFE5A4630
:102530000D9BFDF7A9FE00250E465A4628460D9B29
:10254000FDF743FFDDE90E23FDF73FFF424653460B
:10255000FDF73BFF3A46119BFDF73AFFDFF898A0E5
:10256000244A5346FDF737FF07468846234A244B43
:1025700031462846FDF72FFF3A464346FDF784FED5
:10258000074688464FF0A842534631462846FDF795
:1025900022FF3A464346FDF777FE159A12F0004FA8
:1025A00004D0129A81F0004152421292C4E9000113
:1025B000129817B0BDE8F08FFB21E93F7CD90240AB
:1025C000FB21F93F7370032E8A19A33B000040548E
:1025D0003163621A61B4D03DFB21394183C8C96DB2
:1025E000305FE43F0000E03F50200000CC1F0000BF
:1025F000AE1F0000182D4454FB21F93D3326A611CF
:10260000460B113C2DE9FF4D21F0004807460C46D2
:10261000B8F1795F08DAFEF709F9002801BF002058
:10262000324904B0BDE8F08D3A46234610461946BB
:10263000FDF7D1FE054602462D480E460B46062103
:10264000784400F05DF82A463346FDF7C4FEDDE924
:10265000022382468B4638462146FDF7BCFE0446DF
:102660000F4652465B4628463146FDF7B4FE2246E9
:102670003B46FDF7AAFE07468A464FF0FF32284642
:102680003146FEF7AAF81B4A90450ADA3A46534605
:10269000FDF79BFE04B00022BDE8F04D134BFDF7A3
:1026A00097BE154A4245A8BFA8F500154FF0000493
:1026B000B8BF124D22462B46FDF787FE06468846D8
:1026C00022462B4600200949FDF77FFE04460D46B1
:1026D0003A46534630464146FDF777FE04B022465F
:1026E0002B46BDE8F04DFDF773BE00000000F03F43
:1026F000841D00003333D33F0000E93F0000D23F88
:102700002DE9F0414F1E00EBC7010446D1E900015D
:1027100015461E4637F006020DD02A463346FDF711
:102720005AFE7F1E04EBC703D3E90023FDF7ACFD7F
:1027300037F00602F1D1022F25D0042F13D0062F37
:1027400018BFBDE8F0812A463346FDF744FED4E9C0
:102750000A23FDF799FD2A463346FDF73CFED4E9EE
:102760000823FDF791FD2A463346FDF734FED4E9F0
:102770000623FDF789FD2A463346FDF72CFED4E9F2
:102780000423FDF781FD2A463346FDF724FED4E9F4
:102790000223FDF779FD2A463346FDF71CFED4E9F6
:1027A0000023BDE8F041FDF76FBD00002DE9FF4DAE
:1027B000054621F0004084B00C46B0F1795F0BDA99
:1027C0002846FFF736FD042808BF00F06FF82846BA
:1027D00008B02146BDE8F08D2A460B461046FDF7AD
:1027E000FAFD06460F462A462346FDF7F4FD8046CD
:1027F00026488A4632463B4605217844FFF780FF4B
:1028000083461098029160B3214A224B40465146BC
:10281000FDF7E1FDCDE900015A4640465146029BD5
:10282000FDF7D9FD82468846DDE906014FF0FF320B
:10283000FDF7D3FF52464346FDF7C7FD32463B4600
:10284000FDF7C9FDDDE90623FDF7BFFDDDE9002346
:10285000FDF7BBFD08B02A462346BDE8F04DFDF765
:10286000B7BD0B465A4630463946FDF7B4FD084A17
:10287000084BFDF709FD42465346FDF7ACFD08B095
:102880002A462346BDE8F04DFDF7FEBCC21C000001
:10289000495555555555C5BF0122FDF79EBF00222C
:1028A000134610461146FDF708BE0000024A0020FC
:1028B0001107FDF792BF000001FDFFFF02E008C80D
:1028C000121F08C1002AFAD170477047002001E0AA
:1028D00001C1121F002AFBD17047000001490860A6
:1028E00070470000F400002070B53848C169012924
:1028F0000FD002290FD0C1684FF001024D1C4FF0DC
:1029000002044FF0030309D00425012909D059B16D
:102910000FE0052100E00621016255E0016971B375
:102920000CE0066966B304E00669012E4BD0761C04
:1029300036D04E1C02D001290ED010E001690129C9
:102940001FD1D0E90112002900DA4942002A00DA39
:102950005242914222DC36E00669761C04D04E1CBD
:102960000FD001291ED020E0D0E90131002B00DA80
:102970005B42002900DA49428B4222DC10E00DE084
:102980001FE00169491C10D1D0E90114002900DAC7
:102990004942002C00DA6442A14201DD036213E0E7
:1029A000026211E00169012901D0002070BDD0E967
:1029B0000112002900DA4942002A00DA524291420B
:1029C00001DD056200E00462012070BD5C000020B2
:1029D00070B5054600244FF47A7603E0304600F0E7
:1029E00005F8641CAC42F9D370BD000010B5044674
:1029F000FEF792FC0349B0FBF1F16143491EFDD2A1
:102A000010BD000000093D00AAB0FEF71FFBFFF754
:102A100063FBFFF7F1F911200090034602460146DF
:102A20000190FFF798FA4B4800F0DDFC494814305C
:102A300000F0E4FC474901201431086001F1140062
:102A400000F0DCFC434902202831086001F1140049
:102A500000F0D4FC3F4903203C31086028393D4850
:102A600000F0CFFC3B493B48283100F0CAFC394913
:102A700038483C3100F0C5FC04210022084600F033
:102A80007DFF354CA061FDF749FFA071FFF748F8C5
:102A9000E08203220021012000F070FFE061142297
:102AA0002E4902A8FDF79AFB002102A800F06AF85F
:102AB0002A4960621422143107A8FDF78FFB002118
:102AC00007A800F05FF82549A062142228310CA85D
:102AD000FDF784FB00210CA800F054F81F49E062C8
:102AE00014223C3111A8FDF779FB002111A800F058
:102AF00049F81A4920631422503116A8FDF76EFBDD
:102B0000002116A800F03EF81449606314226431D5
:102B10001BA8FDF763FB00211BA800F033F80F4949
:102B2000A0631422783120A8FDF758FB002120A8CB
:102B300000F028F80949E06314228C3125A8FDF73C
:102B40004DFB002125A800F01DF8206400F015F8C9
:102B5000FEE70000F8000020000000200C43000801
:102B600001460020842900D0C81C704710B500B968
:102B7000012000F009FD002010BD10B500F0E2FDBD
:102B8000002010BD3EB504460D46B0F90800FFF721
:102B9000E7FF02A9CDE90001208A2B4682B2D4E9E1
:102BA000001001F0E3F9012801D000203EBD029899
:102BB0003EBD00002DE9F0474FF000086B49C446C8
:102BC000474691F8810046464546444643464246BC
:102BD000042844D98946411E1F2945D80027494663
:102BE0003BE0CE5D0A2E37D9CE1996F820C0BCF155
:102BF0000A0F31D996F840C0BCF10A0F2CD996F8CB
:102C000060C0BCF10A0F27D911F807800F44401E9D
:102C100097F820C096F8407096F8606024D4CA46B1
:102C2000D1461AF800100A291CD9814499F82010BD
:102C30000A2917D999F840100A2913D999F8601070
:102C40000A290FD91AF80050504499F8403090F8EA
:102C5000204099F8602007E07F1CB842C1DC0020CA
:102C6000BDE8F087401EDBD5A8EB0C00642148438B
:102C700008EB0C0190FBF1F0B91B4FF0640C01FB69
:102C80000CF13E4491FBF6F6291B01FB0CF12C44A0
:102C900091FBF4F19C1A1A4404FB0CF4091A344811
:102CA00094FBF2F24368921B5D184560836801242F
:102CB0009E1800236FF0310C4FF0FF378660322DE5
:102CC00001DBC46004E0654501DCC76000E0C3606F
:102CD000322E01DB046104E0664501DC076100E09F
:102CE0000361D0E90356354303D0002928DB0C46A5
:102CF00027E0002901DB0B4600E04B42142BAEDA43
:102D0000002A01DB134600E05342142BA7DA51EAF4
:102D100002030FD085696D1C856145690A2D9EDB14
:102D20008569022D9BDB4BB111B10AB10221C16152
:102D3000012095E745696D1C4561EFE7C461F7E740
:102D40004C42142C8BDA002A01DB144600E054427A
:102D5000142C84DA1143416901D1491C41610A29CB
:102D6000DDDBC36003614360836078E78801002096
:102D70005C0000202DE9F041184C0F4605466669BD
:102D80002068001D00F01CFB38B9206890F82C105A
:102D900001208840A1698143A161681C07D137B136
:102DA0002168BDE8F0410E48091D00F042BB2068D3
:102DB0003544B5424560216805D2A068BDE8F041C0
:102DC000091D00F01EBB6068091D00F01AFB206B96
:102DD000854200D22563BDE8F08100009400002008
:102DE000680300202DE9F041054600F02FFB2E4C32
:102DF0002069401C206120682C4F10B1E06940B36D
:102E00002DE025602069012829D1002606EB8600E7
:102E100007EB800000F0E7FA761C072EF6D3234874
:102E20008C3000F0E0FA2148A03000F0DCFA1F48B6
:102E3000B43000F0D8FA1D48C83000F0D4FA1B486E
:102E4000DC3000F0D0FA19488C3060601430A0609B
:102E500005E02068E96AC06A884200D82560E06A17
:102E6000401CE062E96A0120A26988401043A06129
:102E700001EB810007EB8000291D00F0DAFA00F079
:102E800005FBE06900280CD02068E96AC06A884226
:102E900007D207494FF080500860BFF34F8FBFF350
:102EA0006F8FBDE8F0810000940000208C020020AC
:102EB00004ED00E030B4026C0B46002A0BD0C16870
:102EC0001144C1604468A14201D30168C16030BCB3
:102ED0001846FDF783B930BC70472DE9F041856B8A
:102EE000174604460026026C82B1C7B1E068FDF7C0
:102EF00075F9E168206C091AE1602268914202D2FA
:102F00006168081AE060022F16D017E02068A8B99F
:102F1000606801F0C9F80646002060600EE0A06815
:102F2000FDF75CF9216CA0680844A06061688842E4
:102F300004D32068A06001E005B16D1E6D1CA5637F
:102F40003046BDE8F08110B50446006B00F0B2FADF
:102F50002046BDE8104000F0ADBA00000F4842F234
:102F60001071420705D0C01D0C4A20F00700821ADC
:102F7000891A0B4A00230144C2E900030839103AB8
:102F800021F0070111604B600B600B1AC0E90013C0
:102F900093604FF000405360D06070477C03002086
:102FA000E0000020144E154CA6F1C8074FF08058E1
:102FB000DFF84C9012E000BF00F048FAF068C568F6
:102FC000281D00F0FDF92069401E2061E068401EC8
:102FD000E06000F05BFA2846FFF7B5FFE0680028E4
:102FE000EAD138680128F9D9C9F80080BFF34F8FBA
:102FF000BFF36F8FF2E7000054030020940000201D
:1030000004ED00E02DE9F0479A46DDE909848146A8
:103010006FF00303206B03EB82021044089D20F045
:103020000706700707D0502080F31188BFF34F8F39
:10303000BFF36F8FFEE723180A5C83F834200A5C25
:1030400012B1401C1028F6D3002784F84370072DD6
:1030500000D30625E562C4E91157201D00F0CEF922
:1030600004F1180000F0CAF92461C5F10700646298
:10307000A061E76484F8507052464946304600F03B
:1030800029F92060B8F1000F01D0C8F80040BDE870
:10309000F087000030B5114900E011460A6882420D
:1030A000FBD34B685C18844203D1406818444860E5
:1030B000084643681C18944209D1084C103C246807
:1030C000A24209D052681A4442600A68126802603B
:1030D000814200D0086030BD0460F9E7E0000020C4
:1030E00010B5044600F0B2F9A06B28B15FF00004FF
:1030F00000F0CCF9204610BD0124F9E706484168EC
:10310000096829B14168C968C9684968016370479D
:103110004FF0FF31FAE700009400002008484068B3
:10312000401C4FF0500080F3118804D0BFF34F8F44
:10313000BFF36F8FFEE7BFF34F8FBFF36F8FFEE7D5
:10314000E8000020002150B10A4B42699A420FD199
:10315000806AA3F1280290420AD040B108E05020D2
:1031600080F31188BFF34F8FBFF36F8FFEE701210C
:1031700008467047680300202DE9F041044600F03E
:1031800065F994F9455004F1240609E0606A48B1F4
:10319000304601F01FF808B100F024FA6D1E6DB240
:1031A000002DF3DC4FF0FF3684F8456000F06EF937
:1031B00000F04CF994F9445004F1100709E020693B
:1031C00048B1384601F006F808B100F00BFA6D1E60
:1031D0006DB2002DF3DC84F84460BDE8F04100F0EE
:1031E00055B900002DE9F0410546002700F03CFBF1
:1031F000314E306808B9FFF7B1FEF06805424BD197
:10320000C5B3083568070ED005F00700C0F1080007
:103210000544680707D0502080F31188BFF34F8F13
:10322000BFF36F8FFEE72DB37068854234D8224814
:10323000103001460C6801E020460C466168A94246
:1032400002D221680029F7D131688C4224D0076866
:103250002168016060680837411B10290FD9601987
:10326000420708D0502080F31188BFF34F8FBFF37F
:103270006F8FFEE710E041606560FFF70BFF61684C
:103280007068401A7060B268904200D2B060F06816
:1032900001430020C4E9000100F0D6FF780707D001
:1032A000502080F31188BFF34F8FBFF36F8FFEE77D
:1032B0003846BDE8F0810000D000002004490868CD
:1032C00018B10868826C521C82640868704700005C
:1032D0009400002010B5031F4FF080741C601B1F6A
:1032E00021F001011960191F024B0B60143940389D
:1032F0000A6010BD1D3100080749002001F8800F49
:103300004870064948608860C86008614861886103
:10331000C861086270470000880100205C0000203E
:1033200000B5254B21F0004287B09A4203DC002211
:10333000134600922BE0214B9A4208D140B94FF03E
:103340000100FFF7CBFAFFF7AAFA07B000BD03DBD5
:10335000FFF7A2FA07B000BD02AAFEF78FFF10F038
:1033600003014FF001000DD0012914D002291AD019
:103370000DF1080C9CE80F00FFF744F907B081F04D
:10338000004100BD0DF1080C00909CE80F00FFF714
:103390000DFA07B000BD0DF1080C9CE80F00FFF717
:1033A00031F907B000BD0DF1080C00909CE80F004A
:1033B000FFF7FCF9E2E70000FB21E93F0000F07FA6
:1033C000D0E9013201699A60D0E901235A604A6864
:1033D000824201D182684A60002202610868401E70
:1033E00008600868704700F108014FF0FF32C0E93B
:1033F0000112C1600161002101607047002101617B
:10340000704730B50B685A1C02D000F1080202E088
:10341000026904E02246546825689D42FAD953683F
:103420004B6099608A60516008610168491C0160C5
:1034300030BD42684A6093688B60936859609160C0
:1034400008610168491C016070470000502080F34A
:103450001188BFF34F8FBFF36F8F0A494868401C34
:10346000486001280CD10848006810F0FF0F07D011
:10347000502080F31188BFF34F8FBFF36F8FFEE7AB
:1034800070470000E800002004ED00E008494868AB
:1034900028B1401E486001D180F311887047502048
:1034A00080F31188BFF34F8FBFF36F8FFEE70000EB
:1034B000E800002070B5002827D0144DA0F10804C2
:1034C0006168E868014207D1502080F31188BFF39A
:1034D0004F8FBFF36F8FFEE722683AB1502080F321
:1034E0001188BFF34F8FBFF36F8FFEE78143616099
:1034F00000F0BAF960686968084468602046FFF720
:10350000C9FDBDE8704000F09FBE70BDD000002036
:103510004FF0E02000210161816105494FF47A728A
:103520000968B1FBF2F1491E416107210161704751
:103530009000002010B5FCF72BFE114910280ED387
:1035400000F1E02090F8F0030A78904207D2502072
:1035500080F31188BFF34F8FBFF36F8FFEE70948E9
:103560000068896800F4E060884207D9502080F341
:103570001188BFF34F8FBFF36F8FFEE710BD0000C0
:10358000E80000200CED00E010B5020014D00F4858
:10359000806B38B1502080F31188BFF34F8FBFF399
:1035A0006F8FFEE700F060F900211046FFF7E2FBA5
:1035B00000F04AFE002807D105494FF0805008600E
:1035C000BFF34F8FBFF36F8F10BD0000940000203A
:1035D00004ED00E002498A6A02604969416070476F
:1035E00094000020014901204862704794000020A7
:1035F00010B50C4650B1094909681831FFF701FFB1
:103600002046BDE810400121FFF7B4BB502080F3F5
:103610001188BFF34F8FBFF36F8FFEE79400002038
:1036200070B504004BD0A26CA2B1606C884200D38C
:103630000146E06A884242D0012A40D1204D2A68E2
:1036400094420FD1502080F31188BFF34F8FBFF306
:103650006F8FFEE7502080F31188BFF34F8FBFF3C9
:103660006F8FFEE7E162A269002A02DBC1F1070168
:10367000A161144E00EB8000616906EB800081427D
:103680001DD1201DFFF79CFE012150B9E06A00EB1F
:10369000800256F8222022B9AA6901FA00F082437A
:1036A000AA61E06AAA6981401143A96100EB800028
:1036B00006EB8000211DBDE87040FFF7BABE70BD6B
:1036C000940000208C02002070B504002BD01A4D0D
:1036D000286884422FD0FFF7B9FE2046FFF732FD5D
:1036E000E8B1201DFFF76CFEE06A0121AA69814064
:1036F0001143A961114900EB800001EB8000211DFD
:10370000FFF797FEE06A2968C96A884207D30C4927
:103710004FF080500860BFF34F8FBFF36F8FBDE84D
:103720007040FFF7B3BE502080F31188BFF34F8F76
:10373000BFF36F8FFEE770BD940000208C02002065
:1037400004ED00E01CB515480024CDE900402346F7
:10375000802213A1144800F009FC012809D0401C64
:103760001AD1502080F31188BFF34F8FBFF36F8FB2
:10377000FEE7502080F31188BFF34F8FBFF36F8FA8
:1037800006484FF0FF31343801630121C1614461C3
:10379000BDE81C4000F09EB81CBD0000C800002021
:1037A00049444C4500000000A52F000870B50446B0
:1037B000FFF74CFE294D04B92C68201DFFF700FED1
:1037C00058B9E06A264A00EB800152F8211021B96D
:1037D00001218140A8698843A861A06A18B104F159
:1037E0001800FFF7EDFD1E48211DDC30FFF721FE1C
:1037F00094F850000026012801D184F85060FFF7AA
:1038000045FEE86928B1FFF721FEFFF777FCFFF7D7
:103810003DFE2868844213D1E86990B1A86B38B1A5
:10382000502080F31188BFF34F8FBFF36F8FFEE7F7
:103830000C494FF080500860BFF34F8FBFF36F8F7C
:1038400070BD0748DC3000682969884201D12E60CC
:1038500070BDBDE8704000F00FB80000940000207B
:103860008C02002004ED00E00248816B491C81635A
:1038700070470000940000201448816B11B10121B1
:1038800041627047002141628169B1FA81F1C1F161
:103890001F0101EB81020E4951F822306BB101EB9F
:1038A000820101F108034A6852684A609A4201D1D4
:1038B00052684A60D16801607047502080F31188D7
:1038C000BFF34F8FBFF36F8FFEE70000940000201F
:1038D0008C0200201CB5264908780190FF20087052
:1038E00008788DF800009DF800009DF8002000F099
:1038F000F000904207D0502080F31188BFF34F8F23
:10390000BFF36F8FFEE79DF800001A4B00F05000E8
:1039100018700720986005E09DF8002052008DF88F
:103920000020401E9DF800201206F5D49860032860
:1039300007D0502080F31188BFF34F8FBFF36F8FF4
:10394000FEE74FF440709860019808700A480168DB
:1039500041F470010160016841F070410160FFF7BE
:10396000D7FD00205860FCF7DDFB00201CBD0000E7
:1039700000E400E0E800002020ED00E070B50E4615
:10398000050013D0D6B105FB06F04830FFF72AFC3E
:10399000040009D004F1480120468EB10160C0E95D
:1039A0000F56012100F00EF8204670BD502080F324
:1039B0001188BFF34F8FBFF36F8FFEE70020E4E75E
:1039C0000060ECE770B50D46040025D0FFF73EFD22
:1039D000D4E90F20216802FB001161600021A1637E
:1039E0002168A1600A46D4E90F01401E00FB0121B5
:1039F000E16021464FF0FF3001F8440F487004F1B8
:103A000010008DB1FFF7EFFC04F12400FFF7EBFC91
:103A1000FFF73CFD012070BD502080F31188BFF3FB
:103A20004F8FBFF36F8FFEE721690029F0D000F0C0
:103A3000D1FB0028ECD004494FF080500860BFF360
:103A40004F8FBFF36F8FE3E704ED00E02DE9FF47F1
:103A500082B01D468A464FF00008040003D0BAF138
:103A6000000F08D011E0502080F31188BFF34F8F72
:103A7000BFF36F8FFEE7206C38B1502080F31188C0
:103A8000BFF34F8FBFF36F8FFEE7022D0AD1E06BBC
:103A9000012807D0502080F31188BFF34F8FBFF368
:103AA0006F8FFEE700F08EFA3F4F4FF000094FF0A6
:103AB000805648B9049838B1502080F31188BFF37C
:103AC0004F8FBFF36F8FFEE7FFF7C0FCA06BE16B7A
:103AD000884207D3022D05D00498D0B1B8F1000F69
:103AE0001AD01EE02A4651462046FFF7F6F9616AD1
:103AF00019B104F1240000F06DFB20B13E60BFF36A
:103B00004F8FBFF36F8FFFF7C1FC012006B0BDE8F8
:103B1000F087FFF7BBFC22E06846FFF75BFD4FF044
:103B20000108FFF7B3FCFFF79FFEFFF78FFC94F946
:103B30004400401C01D184F8449094F94500401C95
:103B400001D184F84590FFF7A1FC04A9684600F074
:103B5000D3F930B12046FFF70FFB00F075FB0020D2
:103B6000D4E7FFF773FCA06BE16B884213D1FFF73A
:103B70008DFC04F110000499FFF73AFD2046FFF791
:103B8000FBFA00F061FB00289ED13E60BFF34F8F2F
:103B9000BFF36F8F98E7FFF779FC2046FFF7ECFA49
:103BA00000F052FB90E7000004ED00E070B50E4617
:103BB000040009D0206C78B1502080F31188BFF345
:103BC0004F8FBFF36F8FFEE7502080F31188BFF354
:103BD0004F8FBFF36F8FFEE7206848B9606838B138
:103BE000502080F31188BFF34F8FBFF36F8FFEE734
:103BF000FFF7A0FC5020EFF3118580F31188BFF38D
:103C00004F8FBFF36F8FA16BE06B884218D994F987
:103C10004500491CA163411C04D0401C84F84500A8
:103C200001200EE0606A0028FAD004F1240000F0C0
:103C3000D1FA0028F4D0002EF2D001203060EFE756
:103C4000002085F3118870BD2DE9F747002683B069
:103C50008A46040003D0BAF1000F08D011E05020CA
:103C600080F31188BFF34F8FBFF36F8FFEE7206C97
:103C700038B1502080F31188BFF34F8FBFF36F8F9F
:103C8000FEE700F09FF9DFF8F4804FF000094FF0F5
:103C9000805748B9059838B1502080F31188BFF398
:103CA0004F8FBFF36F8FFEE7FFF7D0FBA56BC5B15A
:103CB00051462046FFF7FEF86D1EA563206950B1FE
:103CC00004F1100000F086FA28B1C8F80070BFF3C4
:103CD0004F8FBFF36F8FFFF7D9FB012006B0BDE810
:103CE000F087059808B11EB106E0FFF7CFFB27E08B
:103CF0006846FFF76FFC0126FFF7C8FBFFF7B4FD2E
:103D0000FFF7A4FB94F94400401C01D184F84490CF
:103D100094F94500401C01D184F84590FFF7B6FBAB
:103D200005A9684600F0E8F8002820460AD0FFF709
:103D300023FA00F089FA2046FFF7D2F90028B3D021
:103D40000020CBE7FFF7CCF990B104F124000599EE
:103D5000FFF74EFC2046FFF70FFA00F075FA002837
:103D6000A2D1C8F80070BFF34F8FBFF36F8F9BE7EE
:103D70002046FFF701FA00F067FA95E704ED00E04E
:103D80002DE9F343002683B00400354609D0206CAA
:103D900078B1502080F31188BFF34F8FBFF36F8F3E
:103DA000FEE7502080F31188BFF34F8FBFF36F8F72
:103DB000FEE700F007F9DFF83C814FF000094FF013
:103DC000805748B9049838B1502080F31188BFF368
:103DD0004F8FBFF36F8FFEE7FFF738FBA06BC8B1C3
:103DE000401EA063206810B9FFF768FA6060206980
:103DF00050B104F1100000F0EDF928B1C8F80070DE
:103E0000BFF34F8FBFF36F8FFFF740FB012005B06B
:103E1000BDE8F083049808B166B10FE03DB15020D1
:103E200080F31188BFF34F8FBFF36F8FFEE7FFF76B
:103E30002DFB5DE06846FFF7CDFB0126FFF726FB73
:103E4000FFF712FDFFF702FB94F94400401C01D17B
:103E500084F8449094F94500401C01D184F84590C1
:103E6000FFF714FB04A9684600F046F80028204636
:103E700012D0FFF781F900F0E7F92046FFF730F99B
:103E80000028A9D09DB3FFF7E1FA606A50B3206B18
:103E90000068C0F1070126E0FFF722F9E0B12068D1
:103EA00038B9FFF7D3FA606800F04AF90546FFF722
:103EB000EDFA04F124000499FFF79AFB2046FFF77E
:103EC0005BF900F0C1F9002886D1C8F80070BFF393
:103ED0004F8FBFF36F8F7FE72046FFF74DF900F05C
:103EE000B3F979E700216068FFF79AFB9FE7FFE7E6
:103EF00000208CE704ED00E02DE9F0410C460500C0
:103F000011D0C4B1FFF7A2FA174B5A696E68206846
:103F1000911B471C17D02F689B6A9F4219D096426D
:103F200017D8012410E0502080F31188BFF34F8F81
:103F3000BFF36F8FFEE7502080F31188BFF34F8FE0
:103F4000BFF36F8FFEE70024FFF7A0FA2046BDE81D
:103F5000F081884205D9401A20602846FFF73AFBD5
:103F6000F1E700202060DCE7940000202DE9FF5FEE
:103F70008346DDE90E87994616468A469000FFF78C
:103F800031F905001AD05420FFF72CF9040012D0A3
:103F900025630021CDE90241CDE900874B46324639
:103FA00051465846FFF72EF82046FEF71BFF01202A
:103FB00004B0BDE8F09F2846FFF77CFA4FF0FF30D1
:103FC000F6E700000548C16919B1806B18B10020FF
:103FD00070470120704702207047000094000020C5
:103FE0002DE9F0412E4C0027A06B40B1206A401C07
:103FF0002062606A00B101273846BDE8F081666939
:10400000761C666113D16068006838B1502080F377
:104010001188BFF34F8FBFF36F8FFEE76068A16811
:104020006160A060A06A401CA062FFF767F8206B87
:10403000DFF87080864209D36068006880B16068EC
:10404000C068C568686886420DD220632068C06A6F
:1040500000EB800158F821000128CAD90127C8E7E0
:104060004FF0FF30F1E7281DFFF7AAF9A86A18B151
:1040700005F11800FFF7A4F9E86A0121A26981405F
:104080001143A16100EB800108EB8100291DFFF7BE
:10409000D0F9E86A2168C96A8842CDD30127CBE705
:1040A000940000208C02002070B504004FF0000145
:1040B00040D0214D2868844207D0502080F31188D9
:1040C000BFF34F8FBFF36F8FFEE7A06C38B1401E78
:1040D000A064636CE26A9A422CD040B12AE050207E
:1040E00080F31188BFF34F8FBFF36F8FFEE7201D62
:1040F000FFF766F9114A012150B9E06A00EB80032D
:1041000052F8233023B9AB6901FA00F08343AB6165
:10411000606CE062C0F10700A061E06AAB698140B9
:104120001943A96100EB800002EB8000211DFFF71D
:1041300080F90121084670BD940000208C02002007
:1041400070B504004FF0000038D0204DE16A2A68B5
:10415000D26A914233D2A069002804DB2868C06A81
:10416000C0F10700A0611A4E01EB8101606906EB06
:10417000810188421ED1201DFFF722F9012150B98B
:10418000E06A00EB800256F8222022B9AA6901FAFF
:1041900000F08243AA612868C06AE062AA6981408F
:1041A0001143A96100EB800006EB8000211DFFF7A1
:1041B00040F902E02868C06AE062012070BD616CCD
:1041C0002A68D26A9142F8D370BD000094000020A2
:1041D0008C0200202DE9F041C068C468ACB104F144
:1041E00018000746FFF7ECF8154DA86B0126A0B1A3
:1041F00039461448FFF71DF9E06A2968C96A884200
:104200001CD901206E62BDE8F081502080F3118836
:10421000BFF34F8FBFF36F8FFEE7201DFFF7D0F87E
:10422000E16AAA6906FA01F01043A86101EB810076
:104230000449B43901EB8000211DDBE70020E2E7EF
:1042400094000020400300202DE9F0472C4D00246D
:104250002746A86B38B1FFF7F9F8A86B401EA86392
:10426000A86B40B146E0502080F31188BFF34F8F18
:10427000BFF36F8FFEE72969224E0120D1B3A6F16B
:10428000B40980463068E8B1F068C46804F11800E9
:10429000FFF796F8201DFFF793F8E06AAA6908FA7D
:1042A00000F11143A96100EB800109EB8100211DA0
:1042B000FFF7BFF8E06A2968C96A8842E2D3C5F807
:1042C0002480DFE70CB1FEF719FF2C6A44B14646A3
:1042D000FFF786FE00B16E62641EF9D100202862ED
:1042E000686A38B10849012738070860BFF34F8F63
:1042F000BFF36F8FFFF7CAF83846BDE8F0870000BC
:10430000940000204003002004ED00E02445000854
:10431000F121000801000000000000008000000002
:1043200004450008F5190008FDFF0000000000002A
:10433000800000001445000889190008FDFF0000F6
:104340000000000080000000F8440008BD1F0008C5
:104350000000000000000000800000003045000860
:104360008509000800000000000000008000000037
:10437000E8440008B90C000800000000000000003C
:1043800080000000404500088D1A00080000000071
:1043900000000000800000004C450008712100086A
:1043A000FDFF00000000000000040000000000000D
:1043B00000000000010203040607080900000000D5
:1043C00001020304000000004C5555555555A53F0A
:1043D0007751C1166CC156BF9015CB19A001FA3E9A
:1043E000AD529C804F7E92BEC4B1B4BD9EEE213EC4
:1043F000D43888BEE9FAA8BD00004054FB21F93F3B
:104400003163621A61B4D03D0000601A61B4D03DDE
:104410007370032E8A19A33B0000002E8A19A33B58
:10442000C14920259A837B3900000000000000006C
:104430006E83F9A22915444ED15727FCC0DD34F50F
:10444000999562DB4190433CAB6351FE61C5BBDE95
:104450003A6E24B7E0D24D42EA2E49061C92D109A9
:104460001CEB1DFE3EA729B1F53582E88444BB2E26
:1044700026709CE9417E5FB439D69139F439538373
:104480008B5F849C3B28F9BDFF97F81F0F9805DED2
:104490008B112FEF1F6D0A5ACF7E366DB709CB27D0
:1044A000663F464F2DEA5F9EC7BA27757BF1E5EB65
:1044B000F739073DEA92528AB15FFB6B085D8D1FA9
:1044C000A6F810111111813FD561C119A0012ABFB1
:1044D0007DFEB157E31DC73EEB9C2B8AE6E55ABE35
:1044E0007CD5CF5A3AD9E53D44485431315F4765D0
:1044F00074446174610000005254435F4765745412
:10450000696D65004C45445F50574D5F5461736B56
:10451000000000004C45445F466C6173685F546165
:10452000736B00005461736B5F4D61696E00000036
:10453000415044535F547269676765720000000020
:104540004D5055363035305F476574005446545FE2
:10455000446973706C6179007845000800000020A0
:10456000F8000000BC28000870460008F800002091
:10457000982D0000CC28000800000000000000007A
:10458000000000000000000000000000000000002B
:10459000000000000000000000000000000000001B
:1045A000000000000000000000000000000000000B
:1045B00000000000000000000000000000000000FB
:1045C00000000000000000000000000000000000EB
:1045D00000000000000000000000000000000000DB
:1045E00000000000000000000000000000000000CB
:1045F00000000000000000000000000001000000BA
:1046000010000000000000000024F4000000000082
:10461000000000000000000000000000000000009A
:10462000000000000000000000000000000000008A
:10463000000000000000000000000000000000007A
:10464000000000000000000000000000000000006A
:10465000000000000000000000000000000000005A
:1046600000000000AAAAAAAA0000000000000000A2
:04000005080000ED02
:00000001FF
