:020000040800F2
:10000000602E0020990100084B1B00084D180008C5
:10001000E51A0008470D0008B91D0008000000009F
:1000200000000000000000000000000001010008C6
:10003000790D000800000000450100083D1C000883
:10004000B3010008B3010008B3010008B3010008C0
:10005000B3010008B3010008B3010008B3010008B0
:10006000B3010008B3010008B3010008B3010008A0
:10007000B3010008B3010008B3010008B301000890
:10008000B3010008B3010008B3010008B301000880
:10009000B3010008B3010008B3010008B301000870
:1000A000B3010008B3010008B3010008B301000860
:1000B000B3010008B3010008011D0008B3010008E6
:1000C000B3010008B3010008B3010008B301000840
:1000D000B3010008B3010008B3010008B301000830
:1000E0007B0D0008B3010008B3010008DFF80CD055
:1000F00000F056FA0048004759250008602E0020FD
:10010000224B19680868B0E8F00F80F30988BFF344
:100110006F8F4FF0000080F311884EF00D0E704786
:100120000000000006480068006880F3088862B696
:1001300061B6BFF34F8FBFF36F8F00DF00BF00BF0B
:1001400008ED00E0EFF30980BFF36F8F0F4B1A68E3
:1001500020E9F00F106008B54FF0500080F31188CF
:10016000BFF34F8FBFF36F8F03F076F84FF00000AF
:1001700080F31188BDE8084019680868B0E8F00FFE
:1001800080F30988BFF36F8F704700BF68000020BD
:10019000EFF3058070470000064880470648004797
:1001A000FEE7FEE7FEE7FEE7FEE7FEE7FEE7FEE727
:1001B000FEE7FEE7B91C0008ED000008202A04DB7A
:1001C000203A21FA02F00021704721FA02F3D040D0
:1001D000C2F12002914008431946704740EA0103EA
:1001E0009B0703D009E008C9121F08C0042AFAD2ED
:1001F00003E011F8013B00F8013B521EF9D27047B1
:10020000D2B201E000F8012B491EFBD27047002258
:10021000F6E710B513460A4604461946FFF7F0FF05
:10022000204610BD2DE9FE4F804681EA0300C00F35
:100230000C46009021F0004123F00045B8EB02008D
:10024000A94105D24046214690461C460B4602462F
:1002500023F00040104347D0270DC7F30A00C3F333
:100260000A510290401A019040286BDAC3F3130040
:1002700040F4801B0098924620B10023D2EB030A81
:1002800063EB0B0B01985946C0F14002504600F059
:1002900008F906460D4650465946019A00F010F9F5
:1002A00010EB08006141002487EA115284EAE773E9
:1002B0001A4340D0009A62B3019A012A4FEA0752CA
:1002C00015DC001B61EB02014FF0004202EA07520D
:1002D000CDE90042001C41F5801132462B4600F06A
:1002E00010F903B0BDE8F08F40462146F9E7001B46
:1002F00061EB0201001C41F5801300185B412018DE
:10030000A2F5001747EB030140EAD570B6196D411D
:1003100011E06D084FEA360645EAC0754FEA07520C
:10032000001B61EB0201001C41F5801149084FEAF6
:1003300030000019514132462B4603B0BDE8F04F62
:1003400000F0D0B80098012240000023D0EB020258
:1003500063EBE073009821464FEAE074B8EB0000CD
:1003600061EB0401E9E783F000435BE781F00041C2
:1003700058E72DE9FE4F81EA030404F0004421F020
:10038000004100944FF0000B23F0004350EA0104B9
:100390005ED052EA03045BD0C3F30A54C1F30A559A
:1003A0002C44A4F2F3340194A0FB0254C1F31301D2
:1003B00041F48011C3F3130343F4801301FB02449F
:1003C00000FB034E840A970A44EA815447EA8357A4
:1003D000A4FB076802958D0A05FB07854FEA932C5D
:1003E00004FB0C542705029D4FEA065847EA1637CE
:1003F000B5EB08056EEB070C870E920E47EA8117E6
:1004000042EA8312A7FB0201B6EB0B0164EB000486
:100410002B0D43EA0C335E1844EB1C50DA46514670
:10042000E7FB0201C5F313044FEA0B3343EA14530D
:100430004FEA0432019C43EA0603A4F10C0402943F
:10044000009CCDE900B400F05CF803B0BDE8F08F8B
:1004500000200146F9E70EB540F233410291002138
:10046000CDE900110A460B4600F04BF803B000BD81
:10047000C1F30A5210B5C1F3130140F2FF3341F446
:1004800080119A4201DA002010BD40F233439A42B3
:10049000A2F2334203DC5242FFF790FE10BD9040BF
:1004A00010BD202A04DB203A00FA02F10020704738
:1004B0009140C2F1200320FA03F3194390407047A2
:1004C000202A06DBCB17203A41FA02F043EAE07318
:1004D00006E041FA02F3D040C2F120029140084305
:1004E0001946704710B5141E73F1000408DA401C59
:1004F00041F1000192185B411A4301D120F0010043
:1005000010BD2DE9F04D92469B4611B1B1FA81F232
:1005100002E0B0FA80F220329046FFF7C2FF0446B4
:100520000F4640EA0A0041EA0B0153465A46084387
:1005300013D0114653EA010019D0C8F140025046C9
:10054000FFF73CFE05460E46504659464246FFF729
:10055000A8FF084305D0012004E020463946BDE845
:10056000F08D0020054346EAE0762C4337430A9895
:100570006305E40AA0EB08000022FD0A44EA4754A0
:100580000A3002D500200146E9E70105101969414A
:10059000DDE9084500196941BDE8F04DA2E700001A
:1005A000064C074D06E0E06840F0010394E80700C0
:1005B00098471034AC42F6D3FFF79CFD283C000866
:1005C000483C00082DE9F04D81EA030404F0004B9B
:1005D00021F0004514464FF0000A23F0004150EA94
:1005E000050220D054EA01021DD0C5F30A57024685
:1005F000C5F31303C1F31300C1F30A5640F4801589
:1006000043F48013A7EB0608101BD64608F2FD380A
:1006100073EB050002D308F1010801E092185B4179
:10062000B8F1000F03DA00200146BDE8F08D00208C
:100630004FF48011064684460EE0171B73EB050746
:1006400005D3121B63EB050306434CEA010C490872
:100650004FEA300092185B4150EA0107EDD152EAAF
:10066000030012D082EA040083EA0501084305D0A2
:10067000101BAB4106D20122002306E000224FF0FE
:10068000004302E06FF0010253101AEB06004CEB3E
:10069000085110EB0A0041EB0B01BDE8F04DFFF7EC
:1006A00021BF70B521F0004303430CD0C1F30A55BC
:1006B0000024D5EB040564EB0403D617AD1AB3414F
:1006C00002DB0020014670BD201841EB025170BDD5
:1006D0000EB5C10F80EAE0700844CA07002140F25D
:1006E00033438DE80E000A460B46FFF70AFF03B0BE
:1006F00000BD70B5C1F30A5201F000450024C1F3FA
:10070000130140F2FF3341F480119A4201DA0020D4
:1007100070BD40F233439A42A2F2334203DC5242AC
:10072000FFF74CFD00E090402C43F1D0404270BDFB
:1007300010B5AF2000F0D2FA10F0010000D0012077
:1007400010BD10B5044602F045FBFF21832000F0E8
:10075000E2FA89218E2000F0DEFA89218E2000F055
:10076000DAFA032000F02CF90CB1012000E000209F
:1007700000F0E9F8012000F014F90121002000F058
:10078000B0F80121032000F0ACF80121022000F0B4
:10079000A8F80121062000F0A4F80021812000F033
:1007A000BAFAF021832000F0B6FA0F21BDE810401C
:1007B0008F2000F0B0BA000070B5FFF7B9FFE8B3C2
:1007C00000F04DF8C00743D0AF2000F087FAC00713
:1007D0003ED0AE2000F082FA80B382001D49FC209A
:1007E00000F0FEF8C1B2042932D31A4C0020843C38
:1007F00021E0184A94F88050135C6355154B02446D
:1008000094F88060643B5578F55494F88060203308
:100810009578F554D3780F4A94F88050243AAB5425
:1008200094F88020521C84F8802094F88120521C77
:1008300084F88120001D8842DBDB00E008E001F045
:1008400033FF08B101F014FE002004F8800F60703F
:10085000002070BDE0010020922000F03FBA80200F
:1008600000F03CBA10B5FFF7F7FFAB2801D000202D
:1008700010BD0021072000F034F80028F8D028210E
:10088000A02000F048FA1E21A12000F044FA4021E7
:10089000A22000F040FA022000F044F8002000F00E
:1008A00061F8012000F06EF80021A42000F033FA76
:1008B0000021A52000F02FFA0021A72000F02BFA3C
:1008C0000021A92000F027FAC921A62000F023FA70
:1008D0000021AA2000F01FFA002000F034F80120C7
:1008E00010BD70B50D460446FFF7B9FF0146FF285D
:1008F00009D005F00102062C09D80120A04022B140
:100900000843C1B209E0002070BD814305E0072C17
:1009100003D10AB17F2100E00021802000F0FBF923
:10092000012070BD10B50446A32000F0D7F904F0F3
:10093000090149070A0E00F0E7011143BDE8104024
:10094000A32000F0E8B910B50446AB2000F0C6F9CA
:10095000E1078A0F00F0BD011143BDE81040AB2054
:1009600000F0D9B910B50446A32000F0B7F904F09F
:100970000901CA0000F0CF011143BDE81040A320D7
:1009800000F0C9B910B50446A32000F0A7F904F09F
:10099000490200F058011143BDE81040A32000F0C7
:1009A000BAB910B50446AB2000F098F904F0010282
:1009B00000F0C6011143BDE81040AB2000F0ABB918
:1009C00010B50446902000F089F904F009010A01ED
:1009D00000F017011143BDE81040902000F09BB9D2
:1009E0002DE9F04115460E460746002400F031F986
:1009F000722000F00BF900F05DF9384600F006F9BE
:100A000000F058F900F025F9732000F0FFF800F02D
:100A100051F90AE0012D0FD05FF0010000F096F8C7
:100A20003055641C6D1EA4B2ADB2002DF2D100F0A1
:100A300025F92046BDE8F0810020EFE71A4D1B4C58
:100A4000FFF70AFFE070AB2827D1FFF70BFF10B1CB
:100A50000120FFF776FEFFF76BFE18B1FFF7ACFE43
:100A600060711AE001F004FD2868002813DD0728F2
:100A700017D2DFE800F016080A04060C0E0000206A
:100A800008E0012006E0022004E0032002E0042048
:100A900000E00520207102F09DF9012001F0E0FD49
:100AA000CEE76079F6E70000540000200000002047
:100AB00010B54C2000F070F84C2000F07DF80520B7
:100AC00000F060F9482000F067F8052000F05AF9BE
:100AD000BDE810404C2000F05FB810B54C2000F08D
:100AE0005BF8482000F068F8052000F04BF948203A
:100AF00000F052F8052000F045F9BDE810404C2008
:100B000000F04AB830B50F4885B0816941F008015E
:100B1000816180694FF4805400F008000490002047
:100B2000CDE90040012002900220074D0390694664
:100B3000284600F04BF92146284600F037FA05B068
:100B400030BD0000001002400008014070B50646AC
:100B50000024FFF7D7FF00254C2000F01DF80520EA
:100B600000F010F9482000F017F86006040EFFF7B7
:100B7000C9FF08B1641CE4B26D1CEDB2082DEBD3C3
:100B800016B1012E03D004E0FFF7A7FF01E0FFF745
:100B90008FFF204670BD0000064B4FF400614828CF
:100BA00005D04C2805D10022184600F004BA0122D5
:100BB000FAE770470008014070B50446114886B056
:100BC000816941F00801816180694FF4805500F02E
:100BD000080004900120CDE90050029002200A4E46
:100BE00003906946304600F0F1F8482C08D04C2CB0
:100BF00004D100222946304600F0DDF906B070BD70
:100C00000122F7E7001002400008014070B50446D9
:100C100000254C20FFF7C0FF200601D5482000E04A
:100C20004C20FFF7C9FF6006040E052000F0AAF86B
:100C30004820FFF7B1FF052000F0A4F84C20FFF793
:100C4000ABFF052000F09EF86D1CEDB2082DE3D33C
:100C500070BD10B54820FFF7AFFF4820FFF79CFF9D
:100C6000052000F08FF84C20FFF7A6FF052000F0CC
:100C700089F8BDE810404C20FFF78EBF10B54C201E
:100C8000FFF78AFF052000F07DF84C20FFF794FF66
:100C9000052000F077F84820FFF77EFF052000F0E0
:100CA00071F84820FFF788FFBDE81040052000F0EC
:100CB00069B8000010B50024FFF724FF4820FFF7B3
:100CC0006BFFFFF71FFF0449087000B101244C209F
:100CD000FFF762FF204610BD3400002010B5044627
:100CE000FFF7B7FF7220FFF791FFFFF7E3FF204602
:100CF000FFF78CFFFFF7DEFFFFF7ABFF7320FFF777
:100D000085FFFFF7D7FF0120FFF720FF0446FFF71D
:100D1000B5FF204610BD70B50D460446FFF799FF9C
:100D20007220FFF773FFFFF7C5FF2046FFF76EFF46
:100D3000FFF7C0FF2846FFF769FFFFF7BBFFBDE8DD
:100D40007040FFF79BBFFEE770B50D46044600F00C
:100D500030FFD02000F00AFF00F05CFF204600F0DA
:100D600005FF00F057FF284600F000FF00F052FF9B
:100D7000BDE8704000F032BF70474FF4004000F013
:100D800019B8000070B5044600F01AF90546601C59
:100D900002D004480078044400F012F9401BA0423D
:100DA000FAD370BD580000200149012088707047B7
:100DB00000000020044910B50A68024202D0086011
:100DC000FFF7F2FF10BD0000140401402DE9F84FB9
:100DD000DFF8B891002409F1040A0AF1040B234654
:100DE0000F270BF1040EC9E00125A5402A40AA42B5
:100DF0007DD1674ED1F804C0ACEB0608B44532D0C3
:100E000014DCBCF1030F3AD009DCBCF1000F2AD08E
:100E1000BCF1010F1CD0BCF1020F31D11DE0BCF1BF
:100E2000110F17D0BCF1120F2AD119E0B8F5881FA5
:100E300019D006DCB8F5803F15D0B8F5801F1FD15A
:100E400011E0B8F5001F0ED0B8F5041F18D10AE064
:100E5000CB6815E0CB681B1D12E0CB6808330FE0B0
:100E6000CB680C330CE08B682BB1012B4FF00803DF
:100E700003D0456104E0042302E0056100E00023A3
:100E8000FF2A01D8064601E000F104064FEA840576
:100E900001D9A5F12005D6F8008007FA05FC28EA5B
:100EA0000C0803FA05F548EA0508C6F800804D6805
:100EB000ED0062D5374DAE6946F00106AE61AD6911
:100EC00024F0030605F001050095334D06EB050CF3
:100ED000DCF80850A607360F07FA06F825EA0805D9
:100EE000DFF8B880404503D14FF0000817E044E038
:100EF000DFF8AC80404502D14FF001080FE0DFF889
:100F0000A480404502D14FF0020808E0DFF8988045
:100F1000404502D14FF0030801E04FF0040808FA01
:100F200006F848EA0508CCF808804D68D9F8006052
:100F3000ED034D4601D5164300E096432E604D6803
:100F4000DAF80060AD03554601D5164300E096433C
:100F50002E604D68DBF80060ED025D4601D516435A
:100F600000E096432E604D68DEF80060AD027546E5
:100F700001D5164300E096432E60641C0D682A4696
:100F8000E5407FF431AFBDE8F88F00000004014078
:100F90000000111000100240000001400008014054
:100FA000000C01400010014000140140806808401E
:100FB00000D0012070470AB1016170470904FBE7C6
:100FC000014880687047000058000020024881688E
:100FD000027811448160704758000020074810B51E
:100FE000016841F010010160032000F095F8002035
:100FF00000F006F800F03EF8002010BD002002408E
:1010000000B5014687B000221E2000F065F81E20C2
:1010100000F054F81348C16941F00401C161C0698E
:1010200005A900F004000690684600F01DF900F0E4
:101030003BF90D494000B0FBF1F10D480B4A491E48
:101040000260416040F2E7320021C0E90321816083
:1010500000F002FB10B1012007B000BD044800F011
:1010600017FBF9E70010024040420F000008004063
:101070001C0100200F4808B5816941F00101816120
:10108000816901F001010091C16941F08051C161A4
:10109000C069002200F0805000900F21901E00F0E7
:1010A0001BF80548416821F0E06141F000714160A2
:1010B00008BD00000010024000000140002809DBCC
:1010C00000F01F02012191404009800000F1E02062
:1010D000C0F8001170470000F0B40E4B1B680C46BE
:1010E000C3F30223C3F10705042D00D90425191DFC
:1010F000072901D2002300E0DB1E012606FA05F1D4
:10110000491E214099409E40761E16403143F0BC56
:1011100000F067BE0CED00E0064900F00702086829
:101120004FF6FF03184040EA0220034A10430860CC
:10113000704700000CED00E00000FA052DE9F047D3
:101140000F46050061D0434E306800F00700B842FA
:1011500009D2306820F0070038433060306800F072
:101160000700B84251D128683B4C810712D540078F
:1011700003D5606840F4E06060602878000703D51C
:10118000606840F4605060606068A96820F0F0001A
:10119000084360602878C00728D06868012810D00C
:1011A0002168022810D0890700292EDA616821F011
:1011B000030101436160FFF703FF804641F2883974
:1011C0000DE021688903EFE78901EDE7FFF7F8FEFD
:1011D000A0EB0801494502D90320BDE8F08760680B
:1011E000696800F00C00B0EB810FEFD1306800F0BF
:1011F0000700B8420BD9306820F007003843306050
:10120000306800F00700B84201D00120E5E72878F7
:10121000400705D56068E96820F4E0600843606035
:101220002878000706D56068296920F4605040EAF4
:10123000C100606000F048F86168084AC1F303111A
:10124000515CC8400649086006480068FFF7D8FEB0
:101250000020C2E70020024000100240A83A000827
:10126000640000205C0000200F2202600C4A5368DA
:1012700003F003034360536803F0F0038360536893
:1012800003F4E063C36052684FF4E06303EAD20200
:1012900002610448006800F0070008607047000021
:1012A00000100240002002400448054900684968D7
:1012B000044AC1F30221515CC84070476400002019
:1012C00000100240B83A000812A185B00FC98DE89D
:1012D0000F0014A0144A006804905168134801F0EC
:1012E0000C03042B10D0082B0ED1C1F38343C90388
:1012F0001DF803000AD5516804AAC1F34041515CAE
:101300000A4A5043B0FBF1F005B070470849484322
:10131000FAE7000002030405060708090A0B0C0D92
:101320000E0F1010010200000010024000127A009F
:1013300000093D002DE9F84F040070D02078C04D21
:10134000C00749D06868C0F38100012807D06868E9
:10135000C0F38100022809D16868C00306D5286857
:10136000800339D560680028E7D035E06068B0F5C3
:10137000803F0BD010B1B0F5A02F11D0286820F419
:1013800080302860286820F4802002E0286840F43B
:1013900080302860606890B1FFF712FE06460AE0D0
:1013A000286840F480202860F0E700BFFFF708FEBF
:1013B000801B642873D828688003F7D50CE0FFF7FA
:1013C000FFFD064605E000BFFFF7FAFD801B64281D
:1013D000F0D828688003F7D420789A4E80074FF021
:1013E00001094FF0000839D5686810F00C0F07D0DC
:1013F0006868C0F38100022809D16868C00306D478
:101400002868800714D52069012808D110E02069D8
:10141000B0B1C6F80090FFF7D3FD074605E00AE13A
:10142000FFF7CEFDC01B0228C4D828688007F7D577
:101430002868616920F0F80040EAC10028600DE0EA
:10144000C6F80080FFF7BCFD074604E0FFF7B8FDD3
:10145000C01B022823D828688007F7D4207800070B
:101460002CD57948A169D9B1C0F80090FFF7A8FD43
:10147000074604E0FFF7A4FDC01B02280FD8686AE6
:101480008007F7D571484FF4FA510068B0FBF1F0CE
:10149000009000BF0098411E0091FAD20EE080E05B
:1014A000C0F80080FFF78CFD074604E0FFF788FDD9
:1014B000C01B022875D8686A8007F7D420784007D7
:1014C00060D5E8690027C00008D4E86940F0805082
:1014D000E861E869012700F0805000905C480168ED
:1014E000C90513D40168834641F480710160FFF798
:1014F00067FD824606E000BFFFF762FDA0EB0A0031
:1015000064284ED8DBF80000C005F5D5E068012856
:101510000AD008B1052813D0286A20F001002862FB
:10152000286A20F0040002E0286A40F001002862E6
:10153000E06841F2883B98B1FFF742FD82460BE03C
:10154000286A40F004002862EEE700BFFFF738FD8C
:10155000A0EB0A0159455AD8286A8007F6D50CE055
:10156000FFF72EFD824605E0FFF72AFDA0EB0A01FA
:1015700059454CD8286A8007F6D41FB1E86920F095
:101580008050E861E06988B36968C1F3810102298C
:1015900044D00228C6F8608004D0FFF711FD04464D
:1015A00038E034E0FFF70CFD074604E0FFF708FDE4
:1015B000C01B02282BD828688001F7D4206AB0F518
:1015C000803F05D16868A16820F400300843686056
:1015D000D4E908010843696821F47411084368607C
:1015E000C6F86090FFF7ECFC044606E025E000BF7B
:1015F000FFF7E6FC001B022809D828688001F7D510
:101600001BE000BFFFF7DCFC001B022802D903200F
:10161000BDE8F88F28688001F4D40EE00128F7D0E7
:101620006868226A00F48031914204D1616A00F452
:101630007010884201D00120EAE70020E8E70000AE
:101640000010024000004242800442426400002038
:10165000007000407047704710B5040003D094F844
:101660003D0010B107E0012010BD002084F83C00CF
:10167000204600F00CF8022084F83D00211D20686F
:1016800000F044FB012084F83D00002010BD7047AD
:101690000168CA6842F00102CA600068816801F00E
:1016A0000701062903D0016841F001010160002013
:1016B0007047704770B50446006801694FF0000537
:1016C000C943890715D4C168C943890711D4E91EE4
:1016D000016101202077206880698007204602D0C0
:1016E000FFF7E7FF04E000F098F8204600F096F8D6
:1016F000257720680169C943490717D4C168C943E0
:10170000490713D46FF0040101610220207720689B
:10171000806910F4407F204602D0FFF7CAFF04E042
:1017200000F07BF8204600F079F825772068016901
:10173000C943090716D4C168C943090712D46FF019
:1017400008010161042020772068C06980072046D5
:1017500002D0FFF7AEFF04E000F05FF8204600F093
:101760005DF8257720680169C943C90617D4C168A7
:10177000C943C90613D46FF0100101610820207716
:101780002068C06910F4407F204602D0FFF791FF27
:1017900004E000F042F8204600F040F82577206889
:1017A0000169C943C90708D1C168C943C90704D140
:1017B000891E0161204600F033F820680169C943A1
:1017C000090609D4C168C943090605D46FF0800130
:1017D00001612046FFF73EFF20680169C9434906C1
:1017E00009D4C168C943490605D46FF040010161BD
:1017F000204600F01FF820680169C94389060BD410
:10180000C168C943890607D46FF0200101612046F1
:10181000BDE87040FFF71FBF70BD70477047000004
:1018200000680349884201D1FFF7D0BB7047000030
:101830000008004070470A21B0FBF1F2B0FBF1F361
:1018400001FB130000EB0210C0B27047FEE700007E
:1018500030B50F4885B0816941F008018161806928
:101860004FF4805400F0080004900020CDE90040BF
:10187000012002900220074D039069462846FFF799
:10188000A5FA21462846FFF791FB05B030BD0000C0
:1018900000100240000C0140064B4FF40051482854
:1018A00005D04C2805D100221846FFF784BB012241
:1018B000FAE77047000C014070B50446114886B045
:1018C000816941F00801816180694FF4805500F021
:1018D000080004900120CDE90050029002200A4E39
:1018E000039069463046FFF771FA482C08D04C2C1B
:1018F00004D1002229463046FFF75DFB06B070BDDB
:101900000122F7E700100240000C014008B5184E14
:10191000184C4FF480754FF47A774FF0FF382069F8
:1019200001F034FC002229463046FFF744FB3846DC
:1019300000F096FE012229463046FFF73CFB384670
:1019400000F08EFE60780028E9D0401CC0B26070C4
:101950000528E4D142466946A06801F017FE012837
:10196000DDD100980128DAD1206901F09DFBD6E78E
:10197000000801400000002008B54FF00108214E8A
:10198000214F224C4FF48075CDF80080606901F042
:10199000FDFB002229463046FFF70DFBD4E9080184
:1019A00000223B46FEF7E5FCFEF762FD00F058FE24
:1019B000012229463046FFF7FEFAD4E90801002249
:1019C0003B46FEF7D6FC00223B46FEF7CFFCFEF777
:1019D0004FFD00F045FE2078401CC0B220709628D4
:1019E0000AD184F8018000231A466946A06801F0F4
:1019F0001DFD606901F058FB2078FF28C6D100204A
:101A00002070C3E7000801400000344000000020BF
:101A10002DE9F04385B000242E48009401940294EF
:101A20000394816941F020018161816901F0200105
:101A30000491816941F008018161816901F0080127
:101A40000491816941F0040181618069DFF8888037
:101A500000F004004FF460450490002229464046FF
:101A6000FFF7A9FADFF874904FF4C85700223946FF
:101A70004846FFF7A0FA4FF48050CDE900046946CC
:101A800040460294FFF7A2F900950226012503962D
:101A9000CDE9015469464046FFF798F9009703964F
:101AA000CDE9015469464846FFF790F9E8030090F4
:101AB0000B48CDE9010469464846FFF787F9002243
:101AC00005212820FFF708FB2820FFF7F7FA05B0CB
:101AD000BDE8F08300100240000C01400008014006
:101AE00000002110FEE72DE9F0419846DDE90645AA
:101AF00016460F46FFF79FFE01460620FFF724F922
:101B00003846FFF798FE01460520FFF71DF93046DD
:101B1000FFF791FE01460420FFF716F94046FFF754
:101B20008AFE01460220FFF70FF92046FFF783FEE9
:101B300001460120FFF708F92846FFF77CFEBDE8C3
:101B4000F04101460020FFF7FFB87047064C2069BE
:101B500001F01CFB606901F019FBA06901F016FBA4
:101B6000012000F07DFDF2E70000002070B5044682
:101B700000254C20FFF790FE200601D5482000E00C
:101B80004C20FFF799FE6006040E0520FFF7FAF8D7
:101B90004820FFF781FE0520FFF7F4F84C20FFF7FF
:101BA0007BFE0520FFF7EEF86D1CEDB2082DE3D3A8
:101BB00070BD10B54820FFF77FFE4820FFF76CFE90
:101BC0000520FFF7DFF84C20FFF776FE0520FFF732
:101BD000D9F8BDE810404C20FFF75EBE10B54C2090
:101BE000FFF75AFE0520FFF7CDF84C20FFF764FE03
:101BF0000520FFF7C7F84820FFF74EFE0520FFF746
:101C0000C1F84820FFF758FEBDE810400520FFF757
:101C1000B9B8000010B50024FFF71AFE4820FFF7FE
:101C20003BFEFFF715FE0449087000B101244C206B
:101C3000FFF732FE204610BD2800002010B55020CE
:101C400080F31188BFF34F8FBFF36F8F01F0AEFDAC
:101C500018B104494FF080500860002080F31188CB
:101C600010BD000004ED00E030B58FB028216846BB
:101C7000FEF7CDFA14210AA8FEF7C9FA01210804DB
:101C8000CDE900100024029402250491CDE907500B
:101C90004FF4E01009906846FFF74CFB0F20CDE9A8
:101CA0000A056802CDE90C4002210AA80E94FFF74C
:101CB00045FA0FB030BD00000D48016841F0010148
:101CC000016041680B4A1140416001680A4A1140B5
:101CD0000160016821F480210160416821F4FE0166
:101CE00041604FF41F0181600449C00308607047E0
:101CF000001002400000FFF8FFFFF6FE08ED00E0D4
:101D00000148FFF7D7BC00001C010020F0B50268B5
:101D1000164B174C174D4FF08047984205D0B842EC
:101D200003D0A04201D0A84203D122F070064A6835
:101D30003243984205D0B84203D0A04201D0A84215
:101D400003D122F44074CA6822434C6922F0800215
:101D5000224302608A68C2620A688262984201D1A4
:101D60000969016301214161F0BD0000002C0140BF
:101D700000040040000800400C4E0D4F0D4D0024A3
:101D8000142000F06DFC2046FEF765FB32463B4612
:101D9000FEF7EFFA01F032F8641CE4B2642CC5E9F6
:101DA0000801EDD3012000F05BFCE8E75D36C89147
:101DB000BF15A03F00000020FEE7490050EAC12007
:101DC00018BF04204A0D18BF40F0010040F2FF7216
:101DD000B2EB515F08BF40F00200012808BF0520A8
:101DE00070470907090E002804DB00F1E02080F8A5
:101DF0000014704700F00F0000F1E02080F8141D7F
:101E0000704700002DE9F74F144694B00021C4E953
:101E100002111599079121F00045C9498D4206DC50
:101E20001599C4E9000117B00020BDE8F08FC5493D
:101E3000DFF814A3A9423CDD0799C44E0029C44F22
:101E4000C44A1599534619DDFEF78DFA554506D05B
:101E5000C14AC24BFEF787FAC4E900010AE04FF01D
:101E6000D352BE4BFEF77FFA32463B46FEF77BFA73
:101E7000C4E9000117B00120BDE8F08FFEF7D2F9E8
:101E8000554506D0B44AB54BFEF7CCF9C4E900017C
:101E90000AE04FF0D352B14BFEF7C4F932463B464D
:101EA000FEF7C0F9C4E9000117B04FF0FF30BDE8FC
:101EB000F08FAB49A942159978DB21F000418346A8
:101EC0008846A84AA84BFEF754FA0022A74BFEF713
:101ED000A9F9FEF70EFC0990FEF7FAFB06460F463D
:101EE0009C4A5346FEF745FA43465A46FEF73EFAE9
:101EF00080468A46984A994B30463946FEF739FA69
:101F00002A0D01250B9242465346FEF72FFA032D68
:101F1000C4E9000139D00B98C1F30A51401A05EB0E
:101F200045111139814230DA9148C346784400EBBB
:101F30000510CDF80CA00C90D0E9002330463946AE
:101F4000FEF717FA02460B4604910690584603998D
:101F5000FEF709FA80468A4602460B465846039920
:101F6000FEF701FA049B069AFEF7FDF983460C98EA
:101F700003913946D0E902233046FEF7FAF95A4672
:101F8000039BFEF7F0F96D1CBDE707980028A2BF80
:101F9000099817B0BDE8F08F616881F00041616079
:101FA000099817B04042BDE8F08FFFE784461598C6
:101FB000C1F31301C0F30A50A0F2F5304FEA6018E4
:101FC00000F01F06C6F12000139000200690079035
:101FD00041F4801E05206D4676B1664A08EB00018B
:101FE0007A4452F8213002EB8101B3404A681399D8
:101FF00022FA01F1194305E05F4908EB0002794438
:1020000051F82210A1FB0E27A1FB0C131A449A428F
:1020100034BF0123002303EB070A05EB8003D3E958
:1020200001B70F448F4234BF0121002193448B44F8
:1020300011B1934502D903E0934501D2012100E09B
:102040000021C3E901B7514445F82010011EA0F159
:102050000100C1DC0298059F00F10050800F129032
:102060000298DDE903568000FEF732FB83462846DE
:102070000D91FEF7F0F96FF01D02FEF712FBCDE9AE
:102080000E013046FEF7E7F96FF03D02FEF709FB5F
:1020900080468A463846FEF7DEF96FF05D02FEF7AD
:1020A00000FB0746424653461191FEF7BBF8DDE9B7
:1020B0000E23FEF7B7F85A460D9BFEF7B3F800253E
:1020C0000E465A4628460D9BFEF74DF9DDE90E23D4
:1020D000FEF749F942465346FEF745F93A46119B49
:1020E000FEF744F9DFF898A0244A5346FEF741F979
:1020F00007468846234A244B31462846FEF739F9DD
:102100003A464346FEF78EF8074688464FF0A84207
:10211000534631462846FEF72CF93A464346FEF729
:1021200081F8159A12F0004F04D0129A81F0004104
:1021300052421292C4E90001129817B0BDE8F08F24
:10214000FB21E93F7CD90240FB21F93F7370032E4C
:102150008A19A33B000040543163621A61B4D03D38
:10216000FB21394183C8C96D305FE43F0000E03F87
:10217000C01B00003C1B00001E1B0000182D445417
:10218000FB21F93D3326A611460B113C2DE9FF4DED
:1021900021F0004807460C46B8F1795F08DAFEF7EF
:1021A000A8FA002801BF0020324904B0BDE8F08D34
:1021B0003A46234610461946FEF7DBF80546024626
:1021C0002D480E460B460621784400F05DF82A465D
:1021D0003346FEF7CEF8DDE9022382468B463846C9
:1021E0002146FEF7C6F804460F4652465B4628468F
:1021F0003146FEF7BEF822463B46FEF7B4F80746E6
:102200008A464FF0FF3228463146FEF74AFA1B4A0B
:1022100090450ADA3A465346FEF7A5F804B0002284
:10222000BDE8F04D134BFEF7A1B8154A4245A8BFD3
:10223000A8F500154FF00004B8BF124D22462B46FA
:10224000FEF791F80646884622462B4600200949AB
:10225000FEF789F804460D463A4653463046414655
:10226000FEF781F804B022462B46BDE8F04DFEF79C
:102270007DB800000000F03FF41800003333D33F76
:102280000000E93F0000D23F2DE9F0414F1E00EB76
:10229000C7010446D1E9000115461E4637F0060283
:1022A0000DD02A463346FEF764F87F1E04EBC703C1
:1022B000D3E90023FDF7B6FF37F00602F1D1022F74
:1022C00025D0042F13D0062F18BFBDE8F0812A4671
:1022D0003346FEF74EF8D4E90A23FDF7A3FF2A465A
:1022E0003346FEF746F8D4E90823FDF79BFF2A465C
:1022F0003346FEF73EF8D4E90623FDF793FF2A465E
:102300003346FEF736F8D4E90423FDF78BFF2A465F
:102310003346FEF72EF8D4E90223FDF783FF2A4661
:102320003346FEF726F8D4E90023BDE8F041FDF777
:1023300079BF00002DE9FF4D054621F0004084B033
:102340000C46B0F1795F0BDA2846FFF736FD04281A
:1023500008BF00F06FF8284608B02146BDE8F08DB0
:102360002A460B461046FEF704F806460F462A4654
:102370002346FDF7FEFF804626488A4632463B4606
:1023800005217844FFF780FF83461098029160B3DF
:10239000214A224B40465146FDF7EBFFCDE90001B3
:1023A0005A4640465146029BFDF7E3FF8246884667
:1023B000DDE906014FF0FF32FEF773F9524643465E
:1023C000FDF7D1FF32463B46FDF7D3FFDDE906239B
:1023D000FDF7C9FFDDE90023FDF7C5FF08B02A4678
:1023E0002346BDE8F04DFDF7C1BF0B465A463046C7
:1023F0003946FDF7BEFF084A084BFDF713FF42467A
:102400005346FDF7B6FF08B02A462346BDE8F04D17
:10241000FDF708BF32180000495555555555C5BF41
:102420000122FEF73EB90022134610461146FEF780
:10243000C9B80000024A00201107FEF732B90000B7
:1024400001FDFFFF02E008C8121F08C1002AFAD1EF
:1024500070477047002001E001C1121F002AFBD124
:10246000704700000149086070470000C800002064
:1024700070B53848C16901290FD002290FD0C16851
:102480004FF001024D1C4FF002044FF0030309D03E
:102490000425012909D059B10FE0052100E00621EA
:1024A000016255E0016971B30CE0066966B304E0AE
:1024B0000669012E4BD0761C36D04E1C02D0012965
:1024C0000ED010E0016901291FD1D0E901120029C5
:1024D00000DA4942002A00DA5242914222DC36E018
:1024E0000669761C04D04E1C0FD001291ED020E0B6
:1024F000D0E90131002B00DA5B42002900DA4942C1
:102500008B4222DC10E00DE01FE00169491C10D174
:10251000D0E90114002900DA4942002C00DA6442B3
:10252000A14201DD036213E0026211E001690129A9
:1025300001D0002070BDD0E90112002900DA494223
:10254000002A00DA5242914201DD056200E0046295
:10255000012070BD340000209CB0FEF73FFDFFF766
:1025600083FBFFF755FA112000900346024601460F
:102570000190FFF7B8FA344800F0A3FC3248143059
:1025800000F0AAFC304901201431086001F1140068
:1025900000F0A2FC2C4902202831086001F114004F
:1025A00000F09AFC284903203C310860283926486D
:1025B00000F095FC24492448283100F090FC224981
:1025C00021483C3100F08BFC04210022084600F039
:1025D000C5FE1E4C14221E49A06002A8FDF7FEFD98
:1025E000002102A800F048F81949E06014221431D3
:1025F00007A8FDF7F3FD002107A800F03DF81449F6
:102600002061142228310CA8FDF7E8FD00210CA858
:1026100000F032F80E49606114223C3111A8FDF738
:10262000DDFD002111A800F027F80949A06114225E
:10263000503116A8FDF7D2FD002116A800F01CF8B5
:10264000E06100F014F8FEE7CC000020000000205C
:10265000443A000801460020842900D0C81C704775
:1026600010B500B9012000F0D3FC002010BD10B55A
:1026700000F058FD002010BD3EB504460D46B0F9EF
:102680000800FFF7E7FF02A9CDE90001208A2B46E9
:1026900082B2D4E9001001F04FF8012801D00020E7
:1026A0003EBD02983EBD00002DE9F0474FF0000806
:1026B0006B49C446474691F8810046464546444624
:1026C00043464246042844D98946411E1F2945D81D
:1026D000002749463BE0CE5D0A2E37D9CE1996F841
:1026E00020C0BCF10A0F31D996F840C0BCF10A0FE6
:1026F0002CD996F860C0BCF10A0F27D911F80780D1
:102700000F44401E97F820C096F8407096F860601D
:1027100024D4CA46D1461AF800100A291CD981448B
:1027200099F820100A2917D999F840100A2913D9C5
:1027300099F860100A290FD91AF80050504499F8F6
:10274000403090F8204099F8602007E07F1CB842A4
:10275000C1DC0020BDE8F087401EDBD5A8EB0C00F3
:102760006421484308EB0C0190FBF1F0B91B4FF0DA
:10277000640C01FB0CF13E4491FBF6F6291B01FBB6
:102780000CF12C4491FBF4F19C1A1A4404FB0CF458
:10279000091A344894FBF2F24368921B5D184560B5
:1027A000836801249E1800236FF0310C4FF0FF372F
:1027B0008660322D01DBC46004E0654501DCC76042
:1027C00000E0C360322E01DB046104E0664501DCF9
:1027D000076100E00361D0E90356354303D00029C7
:1027E00028DB0C4627E0002901DB0B4600E04B42CA
:1027F000142BAEDA002A01DB134600E05342142BFF
:10280000A7DA51EA02030FD085696D1C856145691D
:102810000A2D9EDB8569022D9BDB4BB111B10AB1FC
:102820000221C161012095E745696D1C4561EFE713
:10283000C461F7E74C42142C8BDA002A01DB144602
:1028400000E05442142C84DA1143416901D1491C3F
:1028500041610A29DDDBC36003614360836078E77F
:102860005C010020340000202DE9F041184C0F4697
:10287000054666692068001D00F010FB38B9206825
:1028800090F82C1001208840A1698143A161681C47
:1028900007D137B12168BDE8F0410E48091D00F0AD
:1028A00036BB20683544B5424560216805D2A06832
:1028B000BDE8F041091D00F012BB6068091D00F081
:1028C0000EFB206B854200D22563BDE8F08100003D
:1028D000680000203C0300202DE9F041054600F08F
:1028E00023FB2E4C2069401C206120682C4F10B126
:1028F000E06940B32DE025602069012829D1002638
:1029000006EB860007EB800000F0DBFA761C072E52
:10291000F6D323488C3000F0D4FA2148A03000F0E0
:10292000D0FA1F48B43000F0CCFA1D48C83000F08F
:10293000C8FA1B48DC3000F0C4FA19488C306060DB
:102940001430A06005E02068E96AC06A884200D8B7
:102950002560E06A401CE062E96A0120A2698840C3
:102960001043A06101EB810007EB8000291D00F0FE
:10297000CEFA00F0F9FAE06900280CD02068E96A84
:10298000C06A884207D207494FF080500860BFF301
:102990004F8FBFF36F8FBDE8F0810000680000200B
:1029A0006002002004ED00E030B4026C0B46002A07
:1029B0000BD0C1681144C1604468A14201D30168D1
:1029C000C16030BC1846FDF709BC30BC70472DE92A
:1029D000F041856B174604460026026C82B1C7B1F0
:1029E000E068FDF7FBFBE168206C091AE1602268F2
:1029F000914202D26168081AE060022F16D017E0F7
:102A00002068A8B9606800F035FF064600206060C5
:102A10000EE0A068FDF7E2FB216CA0680844A0600E
:102A20006168884204D32068A06001E005B16D1E92
:102A30006D1CA5633046BDE8F08110B50446006BFF
:102A400000F0A6FA2046BDE8104000F0A1BA000050
:102A50000F4842F21071420705D0C01D0C4A20F009
:102A60000700821A891A0B4A00230144C2E90003B5
:102A70000839103A21F0070111604B600B600B1A06
:102A8000C0E9001393604FF000405360D06070477E
:102A900050030020B4000020144E154CA6F1C807C6
:102AA0004FF08058DFF84C9012E000BF00F03CFA85
:102AB000F068C568281D00F0F1F92069401E20610A
:102AC000E068401EE06000F04FFA2846FFF7B5FFCF
:102AD000E0680028EAD138680128F9D9C9F80080EF
:102AE000BFF34F8FBFF36F8FF2E700002803002082
:102AF0006800002004ED00E02DE9F0479A46DDE98A
:102B0000098481466FF00303206B03EB82021044BB
:102B1000089D20F00706700707D0502080F3118829
:102B2000BFF34F8FBFF36F8FFEE723180A5C83F864
:102B300034200A5C12B1401C1028F6D3002784F818
:102B40004370072D00D30625E562C4E91157201D07
:102B500000F0C2F904F1180000F0BEF92461C5F1DB
:102B600007006462A061E76484F8507052464946E9
:102B7000304600F01DF92060B8F1000F01D0C8F810
:102B80000040BDE8F087000030B5114900E0114673
:102B90000A688242FBD34B685C18844203D14068C8
:102BA00018444860084643681C18944209D1084CF0
:102BB000103C2468A24209D052681A4442600A6854
:102BC00012680260814200D0086030BD0460F9E7FD
:102BD000B400002010B5044600F0A6F9A06B28B19F
:102BE0005FF0000400F0C0F9204610BD0124F9E7B1
:102BF00006484168096829B14168C968C9684968D7
:102C0000016370474FF0FF31FAE7000068000020D1
:102C100008484068401C4FF0500080F3118804D0F1
:102C2000BFF34F8FBFF36F8FFEE7BFF34F8FBFF33D
:102C30006F8FFEE7BC000020002150B10A4B4269B3
:102C40009A420FD1806AA3F1280290420AD040B183
:102C500008E0502080F31188BFF34F8FBFF36F8FD0
:102C6000FEE70121084670473C0300202DE9F041B2
:102C7000044600F059F994F9455004F1240609E09E
:102C8000606A48B1304600F041FE08B100F0EEF94C
:102C90006D1E6DB2002DF3DC4FF0FF3684F84560F9
:102CA00000F062F900F040F994F9445004F1100783
:102CB00009E0206948B1384600F028FE08B100F06C
:102CC000D5F96D1E6DB2002DF3DC84F84460BDE8CB
:102CD000F04100F049B900002DE9F0410546002718
:102CE00000F0B2FA314E306808B9FFF7B1FEF06873
:102CF00005424BD1C5B3083568070ED005F0070073
:102D0000C0F108000544680707D0502080F31188FF
:102D1000BFF34F8FBFF36F8FFEE72DB3706885420F
:102D200034D82248103001460C6801E020460C4699
:102D30006168A94202D221680029F7D131688C422A
:102D400024D007682168016060680837411B10299A
:102D50000FD96019420708D0502080F31188BFF3C3
:102D60004F8FBFF36F8FFEE710E041606560FFF7A4
:102D70000BFF61687068401A7060B268904200D2C0
:102D8000B060F06801430020C4E9000100F0F8FDE4
:102D9000780707D0502080F31188BFF34F8FBFF31F
:102DA0006F8FFEE73846BDE8F0810000A4000020E8
:102DB00010B5031F4FF080741C601B1F21F0010130
:102DC0001960191F024B0B60143940380A6010BD9E
:102DD000112C00080749002001F8800F48700649AF
:102DE00048608860C860086148618861C86108629D
:102DF000704700005C0100203400002000B5254B26
:102E000021F0004287B09A4203DC00221346009270
:102E10002BE0214B9A4208D140B94FF00100FFF757
:102E200021FBFFF700FB07B000BD03DBFFF7F8FA5B
:102E300007B000BD02AAFEF7E5FF10F003014FF056
:102E400001000DD0012914D002291AD00DF1080C6F
:102E50009CE80F00FFF79AF907B081F0004100BD30
:102E60000DF1080C00909CE80F00FFF763FA07B023
:102E700000BD0DF1080C9CE80F00FFF787F907B0C3
:102E800000BD0DF1080C00909CE80F00FFF752FA0E
:102E9000E2E70000FB21E93F0000F07FD0E90132CA
:102EA00001699A60D0E901235A604A68824201D1DF
:102EB00082684A60002202610868401E0860086853
:102EC000704700F108014FF0FF32C0E90112C16004
:102ED000016100210160704700210161704730B538
:102EE0000B685A1C02D000F1080202E0026904E0FB
:102EF0002246546825689D42FAD953684B60996010
:102F00008A60516008610168491C016030BD4268F7
:102F10004A6093688B6093685960916008610168AA
:102F2000491C016070470000502080F31188BFF3F6
:102F30004F8FBFF36F8F0A494868401C48600128D3
:102F40000CD10848006810F0FF0F07D0502080F324
:102F50001188BFF34F8FBFF36F8FFEE770470000FC
:102F6000BC00002004ED00E00849486828B1401E7C
:102F7000486001D180F311887047502080F3118898
:102F8000BFF34F8FBFF36F8FFEE70000BC00002040
:102F900070B5002827D0144DA0F108046168E868D6
:102FA000014207D1502080F31188BFF34F8FBFF348
:102FB0006F8FFEE722683AB1502080F31188BFF38B
:102FC0004F8FBFF36F8FFEE78143616000F03CF9E4
:102FD00060686968084468602046FFF7D5FDBDE871
:102FE000704000F0CDBC70BDA40000204FF0E02088
:102FF00000210161816105494FF47A720968B1FBD2
:10300000F2F1491E4161072101617047640000200F
:1030100010B5020014D00F48806B38B1502080F3F7
:103020001188BFF34F8FBFF36F8FFEE700F00CF9ED
:1030300000211046FFF718FC00F0A2FC002807D181
:1030400005494FF080500860BFF34F8FBFF36F8F7B
:1030500010BD00006800002004ED00E002498A6A0B
:103060000260496941607047680000200149012001
:10307000486270476800002010B50C4650B10949FD
:1030800009681831FFF72BFF2046BDE810400121E9
:10309000FFF7EABB502080F31188BFF34F8FBFF3D7
:1030A0006F8FFEE76800002070B504002BD01A4D2A
:1030B000286884422FD0FFF737FF2046FFF7BCFD7A
:1030C000E8B1201DFFF7EAFEE06A0121AA6981400C
:1030D0001143A961114900EB800001EB8000211D23
:1030E000FFF715FFE06A2968C96A884207D30C49CF
:1030F0004FF080500860BFF34F8FBFF36F8FBDE874
:103100007040FFF731BF502080F31188BFF34F8F1D
:10311000BFF36F8FFEE770BD6800002060020020E3
:1031200004ED00E01CB515480024CDE9004023461D
:10313000802213A1144800F0FFFA012809D0401C96
:103140001AD1502080F31188BFF34F8FBFF36F8FD8
:10315000FEE7502080F31188BFF34F8FBFF36F8FCE
:1031600006484FF0FF31343801630121C1614461E9
:10317000BDE81C4000F09EB81CBD00009C00002073
:1031800049444C4500000000992A000870B50446E7
:10319000FFF7CAFE294D04B92C68201DFFF77EFEFB
:1031A00058B9E06A264A00EB800152F8211021B993
:1031B00001218140A8698843A861A06A18B104F17F
:1031C0001800FFF76BFE1E48211DDC30FFF79FFE45
:1031D00094F850000026012801D184F85060FFF7D0
:1031E000C3FEE86928B1FFF79FFEFFF701FDFFF777
:1031F000BBFE2868844213D1E86990B1A86B38B14E
:10320000502080F31188BFF34F8FBFF36F8FFEE71D
:103210000C494FF080500860BFF34F8FBFF36F8FA2
:1032200070BD0748DC3000682969884201D12E60F2
:1032300070BDBDE8704000F00FB8000068000020CD
:103240006002002004ED00E00248816B491C8163AC
:1032500070470000680000201448816B11B1012103
:1032600041627047002141628169B1FA81F1C1F187
:103270001F0101EB81020E4951F822306BB101EBC5
:10328000820101F108034A6852684A609A4201D1FA
:1032900052684A60D16801607047502080F31188FD
:1032A000BFF34F8FBFF36F8FFEE700006800002071
:1032B000600200201CB5264908780190FF200870A4
:1032C00008788DF800009DF800009DF8002000F0BF
:1032D000F000904207D0502080F31188BFF34F8F49
:1032E000BFF36F8FFEE79DF800001A4B00F050000F
:1032F00018700720986005E09DF8002052008DF8B6
:103300000020401E9DF800201206F5D49860032886
:1033100007D0502080F31188BFF34F8FBFF36F8F1A
:10332000FEE74FF440709860019808700A48016801
:1033300041F470010160016841F070410160FFF7E4
:1033400055FE00205860FCF7EDFE00201CBD00007B
:1033500000E400E0BC00002020ED00E070B50E4667
:10336000050013D0D6B105FB06F04830FFF7B4FCDA
:10337000040009D004F1480120468EB10160C0E983
:103380000F56012100F00EF8204670BD502080F34A
:103390001188BFF34F8FBFF36F8FFEE70020E4E784
:1033A0000060ECE770B50D46040025D0FFF7BCFDCA
:1033B000D4E90F20216802FB001161600021A163A4
:1033C0002168A1600A46D4E90F01401E00FB0121DB
:1033D000E16021464FF0FF3001F8440F487004F1DE
:1033E00010008DB1FFF76DFD04F12400FFF769FDBA
:1033F000FFF7BAFD012070BD502080F31188BFF3A4
:103400004F8FBFF36F8FFEE721690029F0D000F0E6
:103410007DFA0028ECD004494FF080500860BFF3DB
:103420004F8FBFF36F8FE3E704ED00E02DE9FF4717
:1034300082B01D468A464FF00008040003D0BAF15E
:10344000000F08D011E0502080F31188BFF34F8F98
:10345000BFF36F8FFEE7206C38B1502080F31188E6
:10346000BFF34F8FBFF36F8FFEE7022D0AD1E06BE2
:10347000012807D0502080F31188BFF34F8FBFF38E
:103480006F8FFEE700F084F93F4F4FF000094FF0D7
:10349000805648B9049838B1502080F31188BFF3A2
:1034A0004F8FBFF36F8FFEE7FFF73EFDA06BE16B21
:1034B000884207D3022D05D00498D0B1B8F1000F8F
:1034C0001AD01EE02A4651462046FFF780FA616A6C
:1034D00019B104F1240000F019FA20B13E60BFF3E5
:1034E0004F8FBFF36F8FFFF73FFD012006B0BDE8A0
:1034F000F087FFF739FD22E06846FFF7AFFD4FF098
:103500000108FFF731FDFFF79FFEFFF70DFD94F96E
:103510004400401C01D184F8449094F94500401CBB
:1035200001D184F84590FFF71FFD04A9684600F01B
:10353000C9F830B12046FFF799FB00F021FA0020CE
:10354000D4E7FFF7F1FCA06BE16B884213D1FFF7E2
:103550000BFD04F110000499FFF78EFD2046FFF7E4
:1035600085FB00F00DFA00289ED13E60BFF34F8F1F
:10357000BFF36F8F98E7FFF7F7FC2046FFF776FB66
:1035800000F0FEF990E7000004ED00E02DE9F747B8
:10359000002683B08A46040003D0BAF1000F08D099
:1035A00011E0502080F31188BFF34F8FBFF36F8F6E
:1035B000FEE7206C38B1502080F31188BFF34F8FA5
:1035C000BFF36F8FFEE700F0E3F8DFF8F4804FF011
:1035D00000094FF0805748B9059838B1502080F362
:1035E0001188BFF34F8FBFF36F8FFEE7FFF79CFC8F
:1035F000A56BC5B151462046FFF7D6F96D1EA563F0
:10360000206950B104F1100000F080F928B1C8F829
:103610000070BFF34F8FBFF36F8FFFF7A5FC012042
:1036200006B0BDE8F087059808B11EB106E0FFF7C7
:103630009BFC27E06846FFF711FD0126FFF794FC8D
:10364000FFF702FEFFF770FC94F94400401C01D123
:1036500084F8449094F94500401C01D184F84590C9
:10366000FFF782FC05A9684600F02CF800282046E8
:103670000AD0FFF7FBFA00F083F92046FFF7AAFA19
:103680000028B3D00020CBE7FFF7A4FA90B104F1F3
:1036900024000599FFF7F0FC2046FFF7E7FA00F059
:1036A0006FF90028A2D1C8F80070BFF34F8FBFF3A5
:1036B0006F8F9BE72046FFF7D9FA00F061F995E795
:1036C00004ED00E02DE9F0410C46050011D0C4B135
:1036D000FFF72AFC174B5A696E682068911B471C3C
:1036E00017D02F689B6A9F4219D0964217D80124A1
:1036F00010E0502080F31188BFF34F8FBFF36F8F1E
:10370000FEE7502080F31188BFF34F8FBFF36F8F18
:10371000FEE70024FFF728FC2046BDE8F081884240
:1037200005D9401A20602846FFF798FCF1E70020F1
:103730002060DCE7680000202DE9FF5F8346DDE9BB
:103740000E87994616468A469000FFF7C5FA05008F
:103750001AD05420FFF7C0FA040012D025630021CC
:10376000CDE90241CDE900874B46324651465846E5
:10377000FFF7C2F92046FFF7AFF8012004B0BDE81B
:10378000F09F2846FFF704FC4FF0FF30F6E70000FB
:103790000548C16919B1806B18B10020704701203C
:1037A0007047022070470000680000202DE9F041BA
:1037B0002E4C0027A06B40B1206A401C2062606A3A
:1037C00000B101273846BDE8F0816669761C666164
:1037D00013D16068006838B1502080F31188BFF3BE
:1037E0004F8FBFF36F8FFEE76068A1686160A060D4
:1037F000A06A401CA062FFF7FBF9206BDFF8708025
:10380000864209D36068006880B16068C068C56896
:10381000686886420DD220632068C06A00EB800190
:1038200058F821000128CAD90127C8E74FF0FF3016
:10383000F1E7281DFFF732FBA86A18B105F118005F
:10384000FFF72CFBE86A0121A26981401143A161C5
:1038500000EB800108EB8100291DFFF758FBE86AA7
:103860002168C96A8842CDD30127CBE768000020D0
:103870006002002070B504004FF0000140D0214DDF
:103880002868844207D0502080F31188BFF34F8FFF
:10389000BFF36F8FFEE7A06C38B1401EA064636C6D
:1038A000E26A9A422CD040B12AE0502080F311887D
:1038B000BFF34F8FBFF36F8FFEE7201DFFF7EEFAC8
:1038C000114A012150B9E06A00EB800352F823301D
:1038D00023B9AB6901FA00F08343AB61606CE0622D
:1038E000C0F10700A061E06AAB6981401943A9619A
:1038F00000EB800002EB8000211DFFF708FB012197
:10390000084670BD68000020600200202DE9F041EB
:10391000C068C468ACB104F118000746FFF7BEFAEE
:10392000154DA86B0126A0B139461448FFF7EFFAF0
:10393000E06A2968C96A88421CD901206E62BDE824
:10394000F081502080F31188BFF34F8FBFF36F8F4A
:10395000FEE7201DFFF7A2FAE16AAA6906FA01F064
:103960001043A86101EB81000449B43901EB8000E8
:10397000211DDBE70020E2E768000020140300209F
:103980002DE9F0472C4D00242746A86B38B1FFF7EE
:10399000CBFAA86B401EA863A86B40B146E050204C
:1039A00080F31188BFF34F8FBFF36F8FFEE7296954
:1039B000224E0120D1B3A6F1B40980463068E8B1A7
:1039C000F068C46804F11800FFF768FA201DFFF7DB
:1039D00065FAE06AAA6908FA00F11143A96100EBEF
:1039E000800109EB8100211DFFF791FAE06A296847
:1039F000C96A8842E2D3C5F82480DFE70CB1FFF73B
:103A0000F7F82C6A44B14646FFF7D0FE00B16E626B
:103A1000641EF9D100202862686A38B1084901277C
:103A200038070860BFF34F8FBFF36F8FFFF79CFA23
:103A30003846BDE8F087000068000020140300202D
:103A400004ED00E00C3C0008791D000801000000B6
:103A50000000000080000000EC3B0008791900081D
:103A6000FDFF00000000000080000000FC3B00089B
:103A70000D190008FDFF000000000000800000009C
:103A8000E03B00084D1B00080000000000000000A3
:103A900080000000183C00083D0A000800000000FB
:103AA0000000000080000000000000000000000096
:103AB00001020304060708090000000001020304D4
:103AC0004C5555555555A53F7751C1166CC156BF3C
:103AD0009015CB19A001FA3EAD529C804F7E92BE4C
:103AE000C4B1B4BD9EEE213ED43888BEE9FAA8BD6B
:103AF00000004054FB21F93F3163621A61B4D03DAC
:103B00000000601A61B4D03D7370032E8A19A33B84
:103B10000000002E8A19A33BC14920259A837B39D6
:103B200000000000000000006E83F9A22915444E39
:103B3000D15727FCC0DD34F5999562DB4190433CB9
:103B4000AB6351FE61C5BBDE3A6E24B7E0D24D4295
:103B5000EA2E49061C92D1091CEB1DFE3EA729B195
:103B6000F53582E88444BB2E26709CE9417E5FB423
:103B700039D69139F43953838B5F849C3B28F9BD46
:103B8000FF97F81F0F9805DE8B112FEF1F6D0A5A54
:103B9000CF7E366DB709CB27663F464F2DEA5F9E35
:103BA000C7BA27757BF1E5EBF739073DEA92528AF0
:103BB000B15FFB6B085D8D1FA6F810111111813FDD
:103BC000D561C119A0012ABF7DFEB157E31DC73ED3
:103BD000EB9C2B8AE6E55ABE7CD5CF5A3AD9E53D17
:103BE0005254435F47657454696D65004C45445FAA
:103BF00050574D5F5461736B000000004C45445FAB
:103C0000466C6173685F5461736B00005461736B41
:103C10005F4D61696E000000415044535F5472690A
:103C20006767657200000000483C00080000002043
:103C3000CC00000044240008143D0008CC00002003
:103C4000942D000054240008000000000000000033
:103C50000000000000000000000000000000000064
:103C60000000000000000000000000000000000054
:103C70000000000000000000000000000000000044
:103C80000000000000000000000000000000000034
:103C90000000000000000000000000000000000024
:103CA0000100000010000000000000000024F400EB
:103CB0000000000000000000000000000000000004
:103CC00000000000000000000000000000000000F4
:103CD00000000000000000000000000000000000E4
:103CE00000000000000000000000000000000000D4
:103CF00000000000000000000000000000000000C4
:103D00000000000000000000AAAAAAAA000000000B
:043D100000000000AF
:04000005080000ED02
:00000001FF
